{"@lukso/lsp7-contracts/contracts/presets/LSP7Mintable.sol":{"LSP7Mintable":{"abi":[{"inputs":[{"internalType":"string","name":"name_","type":"string"},{"internalType":"string","name":"symbol_","type":"string"},{"internalType":"address","name":"newOwner_","type":"address"},{"internalType":"uint256","name":"lsp4TokenType_","type":"uint256"},{"internalType":"bool","name":"isNonDivisible_","type":"bool"}],"stateMutability":"nonpayable","type":"constructor"},{"inputs":[],"name":"ERC725Y_DataKeysValuesEmptyArray","type":"error"},{"inputs":[],"name":"ERC725Y_DataKeysValuesLengthMismatch","type":"error"},{"inputs":[],"name":"ERC725Y_MsgValueDisallowed","type":"error"},{"inputs":[{"internalType":"bytes","name":"storedData","type":"bytes"}],"name":"InvalidExtensionAddress","type":"error"},{"inputs":[{"internalType":"bytes","name":"data","type":"bytes"}],"name":"InvalidFunctionSelector","type":"error"},{"inputs":[],"name":"LSP4TokenNameNotEditable","type":"error"},{"inputs":[],"name":"LSP4TokenSymbolNotEditable","type":"error"},{"inputs":[],"name":"LSP4TokenTypeNotEditable","type":"error"},{"inputs":[{"internalType":"address","name":"tokenOwner","type":"address"},{"internalType":"uint256","name":"authorizedAmount","type":"uint256"},{"internalType":"address","name":"operator","type":"address"},{"internalType":"uint256","name":"amount","type":"uint256"}],"name":"LSP7AmountExceedsAuthorizedAmount","type":"error"},{"inputs":[{"internalType":"uint256","name":"balance","type":"uint256"},{"internalType":"address","name":"tokenOwner","type":"address"},{"internalType":"uint256","name":"amount","type":"uint256"}],"name":"LSP7AmountExceedsBalance","type":"error"},{"inputs":[{"internalType":"uint256","name":"callIndex","type":"uint256"}],"name":"LSP7BatchCallFailed","type":"error"},{"inputs":[],"name":"LSP7CannotSendWithAddressZero","type":"error"},{"inputs":[],"name":"LSP7CannotUseAddressZeroAsOperator","type":"error"},{"inputs":[{"internalType":"address","name":"caller","type":"address"},{"internalType":"address","name":"tokenOwner","type":"address"},{"internalType":"address","name":"operator","type":"address"}],"name":"LSP7DecreaseAllowanceNotAuthorized","type":"error"},{"inputs":[],"name":"LSP7DecreasedAllowanceBelowZero","type":"error"},{"inputs":[],"name":"LSP7InvalidTransferBatch","type":"error"},{"inputs":[{"internalType":"address","name":"tokenReceiver","type":"address"}],"name":"LSP7NotifyTokenReceiverContractMissingLSP1Interface","type":"error"},{"inputs":[{"internalType":"address","name":"tokenReceiver","type":"address"}],"name":"LSP7NotifyTokenReceiverIsEOA","type":"error"},{"inputs":[{"internalType":"address","name":"caller","type":"address"},{"internalType":"address","name":"tokenOwner","type":"address"},{"internalType":"address","name":"operator","type":"address"}],"name":"LSP7RevokeOperatorNotAuthorized","type":"error"},{"inputs":[],"name":"LSP7TokenContractCannotHoldValue","type":"error"},{"inputs":[],"name":"LSP7TokenOwnerCannotBeOperator","type":"error"},{"inputs":[{"internalType":"bytes4","name":"functionSelector","type":"bytes4"}],"name":"NoExtensionFoundForFunctionSelector","type":"error"},{"inputs":[{"internalType":"address","name":"operator","type":"address"}],"name":"OperatorAllowanceCannotBeIncreasedFromZero","type":"error"},{"inputs":[{"internalType":"address","name":"callerAddress","type":"address"}],"name":"OwnableCallerNotTheOwner","type":"error"},{"inputs":[],"name":"OwnableCannotSetZeroAddressAsOwner","type":"error"},{"anonymous":false,"inputs":[{"indexed":true,"internalType":"bytes32","name":"dataKey","type":"bytes32"},{"indexed":false,"internalType":"bytes","name":"dataValue","type":"bytes"}],"name":"DataChanged","type":"event"},{"anonymous":false,"inputs":[{"indexed":true,"internalType":"address","name":"operator","type":"address"},{"indexed":true,"internalType":"address","name":"tokenOwner","type":"address"},{"indexed":true,"internalType":"uint256","name":"amount","type":"uint256"},{"indexed":false,"internalType":"bytes","name":"operatorNotificationData","type":"bytes"}],"name":"OperatorAuthorizationChanged","type":"event"},{"anonymous":false,"inputs":[{"indexed":true,"internalType":"address","name":"operator","type":"address"},{"indexed":true,"internalType":"address","name":"tokenOwner","type":"address"},{"indexed":true,"internalType":"bool","name":"notified","type":"bool"},{"indexed":false,"internalType":"bytes","name":"operatorNotificationData","type":"bytes"}],"name":"OperatorRevoked","type":"event"},{"anonymous":false,"inputs":[{"indexed":true,"internalType":"address","name":"previousOwner","type":"address"},{"indexed":true,"internalType":"address","name":"newOwner","type":"address"}],"name":"OwnershipTransferred","type":"event"},{"anonymous":false,"inputs":[{"indexed":true,"internalType":"address","name":"operator","type":"address"},{"indexed":true,"internalType":"address","name":"from","type":"address"},{"indexed":true,"internalType":"address","name":"to","type":"address"},{"indexed":false,"internalType":"uint256","name":"amount","type":"uint256"},{"indexed":false,"internalType":"bool","name":"force","type":"bool"},{"indexed":false,"internalType":"bytes","name":"data","type":"bytes"}],"name":"Transfer","type":"event"},{"stateMutability":"payable","type":"fallback"},{"inputs":[{"internalType":"address","name":"operator","type":"address"},{"internalType":"uint256","name":"amount","type":"uint256"},{"internalType":"bytes","name":"operatorNotificationData","type":"bytes"}],"name":"authorizeOperator","outputs":[],"stateMutability":"nonpayable","type":"function"},{"inputs":[{"internalType":"address","name":"operator","type":"address"},{"internalType":"address","name":"tokenOwner","type":"address"}],"name":"authorizedAmountFor","outputs":[{"internalType":"uint256","name":"","type":"uint256"}],"stateMutability":"view","type":"function"},{"inputs":[{"internalType":"address","name":"tokenOwner","type":"address"}],"name":"balanceOf","outputs":[{"internalType":"uint256","name":"","type":"uint256"}],"stateMutability":"view","type":"function"},{"inputs":[{"internalType":"bytes[]","name":"data","type":"bytes[]"}],"name":"batchCalls","outputs":[{"internalType":"bytes[]","name":"results","type":"bytes[]"}],"stateMutability":"nonpayable","type":"function"},{"inputs":[],"name":"decimals","outputs":[{"internalType":"uint8","name":"","type":"uint8"}],"stateMutability":"view","type":"function"},{"inputs":[{"internalType":"address","name":"operator","type":"address"},{"internalType":"address","name":"tokenOwner","type":"address"},{"internalType":"uint256","name":"subtractedAmount","type":"uint256"},{"internalType":"bytes","name":"operatorNotificationData","type":"bytes"}],"name":"decreaseAllowance","outputs":[],"stateMutability":"nonpayable","type":"function"},{"inputs":[{"internalType":"bytes32","name":"dataKey","type":"bytes32"}],"name":"getData","outputs":[{"internalType":"bytes","name":"dataValue","type":"bytes"}],"stateMutability":"view","type":"function"},{"inputs":[{"internalType":"bytes32[]","name":"dataKeys","type":"bytes32[]"}],"name":"getDataBatch","outputs":[{"internalType":"bytes[]","name":"dataValues","type":"bytes[]"}],"stateMutability":"view","type":"function"},{"inputs":[{"internalType":"address","name":"tokenOwner","type":"address"}],"name":"getOperatorsOf","outputs":[{"internalType":"address[]","name":"","type":"address[]"}],"stateMutability":"view","type":"function"},{"inputs":[{"internalType":"address","name":"operator","type":"address"},{"internalType":"uint256","name":"addedAmount","type":"uint256"},{"internalType":"bytes","name":"operatorNotificationData","type":"bytes"}],"name":"increaseAllowance","outputs":[],"stateMutability":"nonpayable","type":"function"},{"inputs":[{"internalType":"address","name":"to","type":"address"},{"internalType":"uint256","name":"amount","type":"uint256"},{"internalType":"bool","name":"force","type":"bool"},{"internalType":"bytes","name":"data","type":"bytes"}],"name":"mint","outputs":[],"stateMutability":"nonpayable","type":"function"},{"inputs":[],"name":"owner","outputs":[{"internalType":"address","name":"","type":"address"}],"stateMutability":"view","type":"function"},{"inputs":[],"name":"renounceOwnership","outputs":[],"stateMutability":"nonpayable","type":"function"},{"inputs":[{"internalType":"address","name":"operator","type":"address"},{"internalType":"address","name":"tokenOwner","type":"address"},{"internalType":"bool","name":"notify","type":"bool"},{"internalType":"bytes","name":"operatorNotificationData","type":"bytes"}],"name":"revokeOperator","outputs":[],"stateMutability":"nonpayable","type":"function"},{"inputs":[{"internalType":"bytes32","name":"dataKey","type":"bytes32"},{"internalType":"bytes","name":"dataValue","type":"bytes"}],"name":"setData","outputs":[],"stateMutability":"payable","type":"function"},{"inputs":[{"internalType":"bytes32[]","name":"dataKeys","type":"bytes32[]"},{"internalType":"bytes[]","name":"dataValues","type":"bytes[]"}],"name":"setDataBatch","outputs":[],"stateMutability":"payable","type":"function"},{"inputs":[{"internalType":"bytes4","name":"interfaceId","type":"bytes4"}],"name":"supportsInterface","outputs":[{"internalType":"bool","name":"","type":"bool"}],"stateMutability":"view","type":"function"},{"inputs":[],"name":"totalSupply","outputs":[{"internalType":"uint256","name":"","type":"uint256"}],"stateMutability":"view","type":"function"},{"inputs":[{"internalType":"address","name":"from","type":"address"},{"internalType":"address","name":"to","type":"address"},{"internalType":"uint256","name":"amount","type":"uint256"},{"internalType":"bool","name":"force","type":"bool"},{"internalType":"bytes","name":"data","type":"bytes"}],"name":"transfer","outputs":[],"stateMutability":"nonpayable","type":"function"},{"inputs":[{"internalType":"address[]","name":"from","type":"address[]"},{"internalType":"address[]","name":"to","type":"address[]"},{"internalType":"uint256[]","name":"amount","type":"uint256[]"},{"internalType":"bool[]","name":"force","type":"bool[]"},{"internalType":"bytes[]","name":"data","type":"bytes[]"}],"name":"transferBatch","outputs":[],"stateMutability":"nonpayable","type":"function"},{"inputs":[{"internalType":"address","name":"newOwner","type":"address"}],"name":"transferOwnership","outputs":[],"stateMutability":"nonpayable","type":"function"},{"stateMutability":"payable","type":"receive"}],"evm":{"bytecode":{"linkReferences":{},"object":"60806040523480156200001157600080fd5b5060405162002e5c38038062002e5c833981016040819052620000349162000315565b848484848484848484816001600160a01b03811662000066576040516306b620db60e21b815260040160405180910390fd5b620000718162000181565b506040805180820190915260048152632936598960e21b6020820152620000ba907feafec4d89fa9619884b60000a4d96624a38f7ac2d8d9a604ecf07c12c77e480c90620001ef565b620000e67fdeba1e292f8ba88238e10ab3c7f88bd4be4fac56cad5194b6ecceaf653468af185620001ef565b620001127f2f0a68ab07768e01943a599e73362a0e17a63a72e94dd2e384d2c1d4db93275684620001ef565b60408051602081018390526200015b917fe0261fa95db2eb3b5439bd033cda66d56b96f92f243a8228fd87550ed7bdfdb3910160408051601f19818403018152919052620001ef565b50506002805460ff19169315159390931790925550620005569950505050505050505050565b6000546001600160a01b03828116911614620001ec57600080546040516001600160a01b03808516939216917f8be0079c531659141344cd1fd0a4f28419497f9722a3daafe3b4186f6b6457e091a3600080546001600160a01b0319166001600160a01b0383161790555b50565b600082815260016020526040902062000209828262000455565b50817fece574603820d07bc9b91f2a932baadf4628aabcb8afba49776529c14a6104b2826040516200023c919062000521565b60405180910390a25050565b634e487b7160e01b600052604160045260246000fd5b60005b838110156200027b57818101518382015260200162000261565b50506000910152565b600082601f8301126200029657600080fd5b81516001600160401b0380821115620002b357620002b362000248565b604051601f8301601f19908116603f01168101908282118183101715620002de57620002de62000248565b81604052838152866020858801011115620002f857600080fd5b6200030b8460208301602089016200025e565b9695505050505050565b600080600080600060a086880312156200032e57600080fd5b85516001600160401b03808211156200034657600080fd5b6200035489838a0162000284565b965060208801519150808211156200036b57600080fd5b506200037a8882890162000284565b604088015190955090506001600160a01b03811681146200039a57600080fd5b6060870151608088015191945092508015158114620003b857600080fd5b809150509295509295909350565b600181811c90821680620003db57607f821691505b602082108103620003fc57634e487b7160e01b600052602260045260246000fd5b50919050565b601f8211156200045057600081815260208120601f850160051c810160208610156200042b5750805b601f850160051c820191505b818110156200044c5782815560010162000437565b5050505b505050565b81516001600160401b0381111562000471576200047162000248565b6200048981620004828454620003c6565b8462000402565b602080601f831160018114620004c15760008415620004a85750858301515b600019600386901b1c1916600185901b1785556200044c565b600085815260208120601f198616915b82811015620004f257888601518255948401946001909101908401620004d1565b5085821015620005115787850151600019600388901b60f8161c191681555b5050505050600190811b01905550565b6020815260008251806020840152620005428160408501602087016200025e565b601f01601f19169190910160400192915050565b6128f680620005666000396000f3fe60806040526004361061016e5760003560e01c8063715018a6116100cb5780638da5cb5b1161007f578063d72fc29a11610059578063d72fc29a14610493578063dedff9c6146104c0578063f2fde38b146104e0576101e2565b80638da5cb5b146104385780639790242114610460578063b49506fd14610473576101e2565b8063760d9bba116100b0578063760d9bba146103e557806378381670146104055780637f23690c14610425576101e2565b8063715018a6146103b05780637580d920146103c5576101e2565b8063313ce5671161012257806365aeaa951161010757806365aeaa951461032d5780636963d4381461034d57806370a082311461037a576101e2565b8063313ce567146102d957806354f6127f14610300576101e2565b80632bc1da82116101535780632bc1da82146102775780632d7667c91461029957806330d0dc37146102b9576101e2565b806301ffc9a71461022357806318160ddd14610258576101e2565b366101e257346000036101b05760405163e5099ee360e01b81526004016101a79060208082526004908201526000604082015260600190565b60405180910390fd5b6040517f388f5adc00000000000000000000000000000000000000000000000000000000815260040160405180910390fd5b6000366060600482101561020d57828260405163e5099ee360e01b81526004016101a7929190611c72565b6102178383610500565b80519350602001915050f35b34801561022f57600080fd5b5061024361023e366004611ca1565b61060f565b60405190151581526020015b60405180910390f35b34801561026457600080fd5b506003545b60405190815260200161024f565b34801561028357600080fd5b50610297610292366004611dac565b61065c565b005b3480156102a557600080fd5b506102976102b4366004611fe1565b610705565b3480156102c557600080fd5b506102976102d43660046120b3565b61080d565b3480156102e557600080fd5b506102ee6108ce565b60405160ff909116815260200161024f565b34801561030c57600080fd5b5061032061031b366004612122565b6108e7565b60405161024f919061218b565b34801561033957600080fd5b5061026961034836600461219e565b6108f2565b34801561035957600080fd5b5061036d6103683660046121d1565b610958565b60405161024f9190612246565b34801561038657600080fd5b506102696103953660046122a8565b6001600160a01b031660009081526004602052604090205490565b3480156103bc57600080fd5b50610297610aa8565b3480156103d157600080fd5b506102976103e03660046122c3565b610abc565b3480156103f157600080fd5b506102976104003660046122f7565b610ad0565b34801561041157600080fd5b50610297610420366004612363565b610af8565b6102976104333660046123b3565b610bf5565b34801561044457600080fd5b506000546040516001600160a01b03909116815260200161024f565b61029761046e3660046123fa565b610c2a565b34801561047f57600080fd5b5061029761048e366004611dac565b610d1c565b34801561049f57600080fd5b506104b36104ae3660046122a8565b610d5c565b60405161024f9190612454565b3480156104cc57600080fd5b5061036d6104db3660046124a1565b610d80565b3480156104ec57600080fd5b506102976104fb3660046122a8565b610e2b565b606060006105196000356001600160e01b031916610e7f565b5090506001600160a01b03811661056a576040517fbb370b2b0000000000000000000000000000000000000000000000000000000081526001600160e01b03196000351660048201526024016101a7565b600080826001600160a01b0316348787333460405160200161058f94939291906124d6565b60408051601f19818403018152908290526105a991612506565b60006040518083038185875af1925050503d80600081146105e6576040519150601f19603f3d011682016040523d82523d6000602084013e6105eb565b606091505b50915091508115610600579250610609915050565b80518060208301fd5b92915050565b60006001600160e01b031982167fc52d600800000000000000000000000000000000000000000000000000000000148061064d575061064d82610f29565b80610609575061060982610f67565b600061066884336108f2565b9050806000036106af576040517fcba6e9770000000000000000000000000000000000000000000000000000000081526001600160a01b03851660048201526024016101a7565b60006106bb8483612538565b90506106cb338683600187610fa5565b60003382856040516020016106e29392919061254b565b60405160208183030381529060405290506106fd868261114a565b505050505050565b8451845181141580610718575083518114155b80610724575082518114155b80610730575081518114155b15610767576040517f263eee8d00000000000000000000000000000000000000000000000000000000815260040160405180910390fd5b60005b81811015610804576107fc8782815181106107875761078761257c565b60200260200101518783815181106107a1576107a161257c565b60200260200101518784815181106107bb576107bb61257c565b60200260200101518785815181106107d5576107d561257c565b60200260200101518786815181106107ef576107ef61257c565b6020026020010151610ad0565b60010161076a565b50505050505050565b336001600160a01b0384161480159061082f5750336001600160a01b03851614155b1561087f576040517f1a525b320000000000000000000000000000000000000000000000000000000081523360048201526001600160a01b038085166024830152851660448201526064016101a7565b61088d838560008585610fa5565b81156108c8576000836000836040516020016108ab93929190612592565b60405160208183030381529060405290506108c6858261114a565b505b50505050565b60025460009060ff166108e15750601290565b50600090565b606061060982611175565b6000826001600160a01b0316826001600160a01b03160361092c57506001600160a01b038116600090815260046020526040902054610609565b506001600160a01b03808216600090815260066020908152604080832093861683529290522054610609565b60608167ffffffffffffffff81111561097357610973611ce7565b6040519080825280602002602001820160405280156109a657816020015b60608152602001906001900390816109915790505b50905060005b82811015610aa157600080308686858181106109ca576109ca61257c565b90506020028101906109dc91906125bd565b6040516109ea92919061260b565b600060405180830381855af49150503d8060008114610a25576040519150601f19603f3d011682016040523d82523d6000602084013e610a2a565b606091505b509150915081610a7957805115610a445780518082602001fd5b6040517fb774c284000000000000000000000000000000000000000000000000000000008152600481018490526024016101a7565b80848481518110610a8c57610a8c61257c565b602090810291909101015250506001016109ac565b5092915050565b610ab0611217565b610aba600061126c565b565b610ac4611217565b6108c8848484846112f2565b336001600160a01b03861614610aeb57610aeb3386856113e1565b6108c68585858585611488565b336001600160a01b03841614801590610b1a5750336001600160a01b03851614155b15610b6a576040517f98ce29450000000000000000000000000000000000000000000000000000000081523360048201526001600160a01b038085166024830152851660448201526064016101a7565b6000610b7685856108f2565b905082811015610bb2576040517f0ef76c3500000000000000000000000000000000000000000000000000000000815260040160405180910390fd5b828103610bc3858783600187610fa5565b6000858285604051602001610bda9392919061254b565b6040516020818303038152906040529050610804878261114a565b610bfd611217565b3415610c1c5760405163f36ba73760e01b815260040160405180910390fd5b610c268282611625565b5050565b610c32611217565b3415610c515760405163f36ba73760e01b815260040160405180910390fd5b8051825114610c8c576040517f3bcc897900000000000000000000000000000000000000000000000000000000815260040160405180910390fd5b8151600003610cc7576040517f97da5f9500000000000000000000000000000000000000000000000000000000815260040160405180910390fd5b60005b8251811015610d1757610d0f838281518110610ce857610ce861257c565b6020026020010151838381518110610d0257610d0261257c565b6020026020010151611625565b600101610cca565b505050565b610d2a338484600185610fa5565b6000338383604051602001610d419392919061254b565b60405160208183030381529060405290506108c8848261114a565b6001600160a01b03811660009081526005602052604090206060906106099061162f565b6060815167ffffffffffffffff811115610d9c57610d9c611ce7565b604051908082528060200260200182016040528015610dcf57816020015b6060815260200190600190039081610dba5790505b50905060005b8251811015610e2557610e00838281518110610df357610df361257c565b6020026020010151611175565b828281518110610e1257610e1261257c565b6020908102919091010152600101610dd5565b50919050565b610e33611217565b6001600160a01b038116610e73576040517f1ad8836c00000000000000000000000000000000000000000000000000000000815260040160405180910390fd5b610e7c8161126c565b50565b60008080610eb77fcee78b4094da86011096000000000000000000000000000000000000000000006001600160e01b0319861661163c565b90506000610ec482611175565b90508051601414158015610ed85750805115155b15610f1157806040517f42bfe79f0000000000000000000000000000000000000000000000000000000081526004016101a7919061218b565b610f1a8161261b565b60601c95600195509350505050565b60006001600160e01b031982167fa918fa6b0000000000000000000000000000000000000000000000000000000014806106095750610609826116ad565b600080610f7a6301ffc9a760e01b610e7f565b5090506001600160a01b038116610f945750600092915050565b610f9e81846116fb565b9392505050565b6001600160a01b038416610fe5576040517f6355e76600000000000000000000000000000000000000000000000000000000815260040160405180910390fd5b846001600160a01b0316846001600160a01b031603611030576040517fdab7504700000000000000000000000000000000000000000000000000000000815260040160405180910390fd5b6001600160a01b03808616600090815260066020908152604080832093881683529290522083905582156110d2576001600160a01b03851660009081526005602052604090206110809085611799565b5082856001600160a01b0316856001600160a01b03167ff772a43bfdf4729b196e3fb54a818b91a2ca6c49d10b2e16278752f9f515c25d846040516110c5919061218b565b60405180910390a46108c6565b6001600160a01b03851660009081526005602052604090206110f490856117ae565b50811515856001600160a01b0316856001600160a01b03167f0ebf5762d8855cbe012d2ca42fb33a81175e17c8a8751f8859931ba453bd41678460405161113b919061218b565b60405180910390a45050505050565b610c26827f386072cc5a58e61263b434c722725f21031cd06e7c552cfaa06db5de8a320dbc836117c3565b600081815260016020526040902080546060919061119290612657565b80601f01602080910402602001604051908101604052809291908181526020018280546111be90612657565b801561120b5780601f106111e05761010080835404028352916020019161120b565b820191906000526020600020905b8154815290600101906020018083116111ee57829003601f168201915b50505050509050919050565b3361122a6000546001600160a01b031690565b6001600160a01b031614610aba576040517fbf1169c50000000000000000000000000000000000000000000000000000000081523360048201526024016101a7565b6000546001600160a01b03828116911614610e7c57600080546040516001600160a01b03808516939216917f8be0079c531659141344cd1fd0a4f28419497f9722a3daafe3b4186f6b6457e091a3600080546001600160a01b0383167fffffffffffffffffffffffff000000000000000000000000000000000000000090911617905550565b6001600160a01b03841661131957604051630d2d5ec360e41b815260040160405180910390fd5b826003600082825461132b9190612538565b90915550506001600160a01b03841660009081526004602052604081208054859290611358908490612538565b90915550506040516001600160a01b0385169060009033907f3997e418d2cef0b3b0e907b1e39605c3f7d32dbd061e82ea5b4a770d46a160a6906113a19088908890889061268b565b60405180910390a460003360008686856040516020016113c59594939291906126ac565b60405160208183030381529060405290506108c6858483611857565b6001600160a01b0380831660009081526006602090815260408083209387168352929052205480821115611462576040517ff3a6b6910000000000000000000000000000000000000000000000000000000081526001600160a01b0380851660048301526024820183905285166044820152606481018390526084016101a7565b6108c8838561147185856126e6565b600060405180602001604052806000815250610fa5565b6001600160a01b03851615806114a557506001600160a01b038416155b156114c357604051630d2d5ec360e41b815260040160405180910390fd5b6001600160a01b0385166000908152600460205260409020548084111561152f576040517f08d47949000000000000000000000000000000000000000000000000000000008152600481018290526001600160a01b0387166024820152604481018590526064016101a7565b6001600160a01b038616600090815260046020526040812080548692906115579084906126e6565b90915550506001600160a01b03851660009081526004602052604081208054869290611584908490612538565b92505081905550846001600160a01b0316866001600160a01b0316336001600160a01b03167f3997e418d2cef0b3b0e907b1e39605c3f7d32dbd061e82ea5b4a770d46a160a68787876040516115dc9392919061268b565b60405180910390a4600033878787866040516020016115ff9594939291906126ac565b604051602081830303815290604052905061161a878261194a565b610804868583611857565b610c268282611975565b60606000610f9e83611ad5565b604080517fffffffffffffffffffff00000000000000000000000000000000000000000000841660208201526000602a82018190526bffffffffffffffffffffffff198416602c830152918291016040516020818303038152906040529050806116a5906126f9565b949350505050565b60006001600160e01b031982167f629aa69400000000000000000000000000000000000000000000000000000000148061060957506301ffc9a760e01b6001600160e01b0319831614610609565b604080516001600160e01b03198316602480830191909152825180830390910181526044909101909152602080820180517bffffffffffffffffffffffffffffffffffffffffffffffffffffffff166301ffc9a760e01b178152825160009392849283928392918391908a617530fa92503d91506000519050828015611782575060208210155b801561178e5750600081115b979650505050505050565b6000610f9e836001600160a01b038416611b30565b6000610f9e836001600160a01b038416611b7f565b6117dd6001600160a01b038416631aed5a8560e21b6116fb565b15610d1757604051631aed5a8560e21b81526001600160a01b03841690636bb56a1490611810908590859060040161271d565b6000604051808303816000875af115801561182f573d6000803e3d6000fd5b505050506040513d6000823e601f3d908101601f191682016040526108c89190810190612736565b61186883631aed5a8560e21b6116fb565b156118bb57604051631aed5a8560e21b81526001600160a01b03841690636bb56a1490611810907f20804611b3e2ea21c480dc465142210acf4a2485947541770ec1fb87dee4a55c90859060040161271d565b81610d17576001600160a01b0383163b1561190d576040517fa608fbb60000000000000000000000000000000000000000000000000000000081526001600160a01b03841660048201526024016101a7565b6040517f26c247f40000000000000000000000000000000000000000000000000000000081526001600160a01b03841660048201526024016101a7565b610c26827f429ac7a06903dbc9c13dfcb3c9d11df8194581fa047c96d7a4171fc7402958ea836117c3565b7f2145e1d6d074577dc71ef54c3807742b41b053a9352ae6b491331509acb9750f82016119ce576040517f85c169bd00000000000000000000000000000000000000000000000000000000815260040160405180910390fd5b7fd0f59754f88971fe6bc5a6618cc9d5f1e859c58d16b22d1c7b2d3e2b246cd8aa8201611a27576040517f76755b3800000000000000000000000000000000000000000000000000000000815260040160405180910390fd5b7f1fd9e056a24d14c4abc642fcc325992a946906d0dbc57dd70278aaf12842024d8201611a80576040517f4ef6d7fb00000000000000000000000000000000000000000000000000000000815260040160405180910390fd5b6000828152600160205260409020611a9882826127ea565b50817fece574603820d07bc9b91f2a932baadf4628aabcb8afba49776529c14a6104b282604051611ac9919061218b565b60405180910390a25050565b60608160000180548060200260200160405190810160405280929190818152602001828054801561120b57602002820191906000526020600020905b815481526020019060010190808311611b115750505050509050919050565b6000818152600183016020526040812054611b7757508154600181810184556000848152602080822090930184905584548482528286019093526040902091909155610609565b506000610609565b60008181526001830160205260408120548015611c68576000611ba36001836126e6565b8554909150600090611bb7906001906126e6565b9050818114611c1c576000866000018281548110611bd757611bd761257c565b9060005260206000200154905080876000018481548110611bfa57611bfa61257c565b6000918252602080832090910192909255918252600188019052604090208390555b8554869080611c2d57611c2d6128aa565b600190038181906000526020600020016000905590558560010160008681526020019081526020016000206000905560019350505050610609565b6000915050610609565b60208152816020820152818360408301376000818301604090810191909152601f909201601f19160101919050565b600060208284031215611cb357600080fd5b81356001600160e01b031981168114610f9e57600080fd5b80356001600160a01b0381168114611ce257600080fd5b919050565b634e487b7160e01b600052604160045260246000fd5b604051601f8201601f1916810167ffffffffffffffff81118282101715611d2657611d26611ce7565b604052919050565b600067ffffffffffffffff821115611d4857611d48611ce7565b50601f01601f191660200190565b600082601f830112611d6757600080fd5b8135611d7a611d7582611d2e565b611cfd565b818152846020838601011115611d8f57600080fd5b816020850160208301376000918101602001919091529392505050565b600080600060608486031215611dc157600080fd5b611dca84611ccb565b925060208401359150604084013567ffffffffffffffff811115611ded57600080fd5b611df986828701611d56565b9150509250925092565b600067ffffffffffffffff821115611e1d57611e1d611ce7565b5060051b60200190565b600082601f830112611e3857600080fd5b81356020611e48611d7583611e03565b82815260059290921b84018101918181019086841115611e6757600080fd5b8286015b84811015611e8957611e7c81611ccb565b8352918301918301611e6b565b509695505050505050565b600082601f830112611ea557600080fd5b81356020611eb5611d7583611e03565b82815260059290921b84018101918181019086841115611ed457600080fd5b8286015b84811015611e895780358352918301918301611ed8565b80358015158114611ce257600080fd5b600082601f830112611f1057600080fd5b81356020611f20611d7583611e03565b82815260059290921b84018101918181019086841115611f3f57600080fd5b8286015b84811015611e8957611f5481611eef565b8352918301918301611f43565b600082601f830112611f7257600080fd5b81356020611f82611d7583611e03565b82815260059290921b84018101918181019086841115611fa157600080fd5b8286015b84811015611e8957803567ffffffffffffffff811115611fc55760008081fd5b611fd38986838b0101611d56565b845250918301918301611fa5565b600080600080600060a08688031215611ff957600080fd5b853567ffffffffffffffff8082111561201157600080fd5b61201d89838a01611e27565b9650602088013591508082111561203357600080fd5b61203f89838a01611e27565b9550604088013591508082111561205557600080fd5b61206189838a01611e94565b9450606088013591508082111561207757600080fd5b61208389838a01611eff565b9350608088013591508082111561209957600080fd5b506120a688828901611f61565b9150509295509295909350565b600080600080608085870312156120c957600080fd5b6120d285611ccb565b93506120e060208601611ccb565b92506120ee60408601611eef565b9150606085013567ffffffffffffffff81111561210a57600080fd5b61211687828801611d56565b91505092959194509250565b60006020828403121561213457600080fd5b5035919050565b60005b8381101561215657818101518382015260200161213e565b50506000910152565b6000815180845261217781602086016020860161213b565b601f01601f19169290920160200192915050565b602081526000610f9e602083018461215f565b600080604083850312156121b157600080fd5b6121ba83611ccb565b91506121c860208401611ccb565b90509250929050565b600080602083850312156121e457600080fd5b823567ffffffffffffffff808211156121fc57600080fd5b818501915085601f83011261221057600080fd5b81358181111561221f57600080fd5b8660208260051b850101111561223457600080fd5b60209290920196919550909350505050565b6000602080830181845280855180835260408601915060408160051b870101925083870160005b8281101561229b57603f1988860301845261228985835161215f565b9450928501929085019060010161226d565b5092979650505050505050565b6000602082840312156122ba57600080fd5b610f9e82611ccb565b600080600080608085870312156122d957600080fd5b6122e285611ccb565b9350602085013592506120ee60408601611eef565b600080600080600060a0868803121561230f57600080fd5b61231886611ccb565b945061232660208701611ccb565b93506040860135925061233b60608701611eef565b9150608086013567ffffffffffffffff81111561235757600080fd5b6120a688828901611d56565b6000806000806080858703121561237957600080fd5b61238285611ccb565b935061239060208601611ccb565b925060408501359150606085013567ffffffffffffffff81111561210a57600080fd5b600080604083850312156123c657600080fd5b82359150602083013567ffffffffffffffff8111156123e457600080fd5b6123f085828601611d56565b9150509250929050565b6000806040838503121561240d57600080fd5b823567ffffffffffffffff8082111561242557600080fd5b61243186838701611e94565b9350602085013591508082111561244757600080fd5b506123f085828601611f61565b6020808252825182820181905260009190848201906040850190845b818110156124955783516001600160a01b031683529284019291840191600101612470565b50909695505050505050565b6000602082840312156124b357600080fd5b813567ffffffffffffffff8111156124ca57600080fd5b6116a584828501611e94565b8385823760609290921b6bffffffffffffffffffffffff1916919092019081526014810191909152603401919050565b6000825161251881846020870161213b565b9190910192915050565b634e487b7160e01b600052601160045260246000fd5b8082018082111561060957610609612522565b6001600160a01b0384168152826020820152606060408201526000612573606083018461215f565b95945050505050565b634e487b7160e01b600052603260045260246000fd5b6001600160a01b038416815260ff83166020820152606060408201526000612573606083018461215f565b6000808335601e198436030181126125d457600080fd5b83018035915067ffffffffffffffff8211156125ef57600080fd5b60200191503681900382131561260457600080fd5b9250929050565b8183823760009101908152919050565b805160208201516bffffffffffffffffffffffff19808216929190601483101561264f5780818460140360031b1b83161693505b505050919050565b600181811c9082168061266b57607f821691505b602082108103610e2557634e487b7160e01b600052602260045260246000fd5b8381528215156020820152606060408201526000612573606083018461215f565b60006001600160a01b038088168352808716602084015280861660408401525083606083015260a0608083015261178e60a083018461215f565b8181038181111561060957610609612522565b80516020808301519190811015610e255760001960209190910360031b1b16919050565b8281526040602082015260006116a5604083018461215f565b60006020828403121561274857600080fd5b815167ffffffffffffffff81111561275f57600080fd5b8201601f8101841361277057600080fd5b805161277e611d7582611d2e565b81815285602083850101111561279357600080fd5b61257382602083016020860161213b565b601f821115610d1757600081815260208120601f850160051c810160208610156127cb5750805b601f850160051c820191505b818110156106fd578281556001016127d7565b815167ffffffffffffffff81111561280457612804611ce7565b612818816128128454612657565b846127a4565b602080601f83116001811461284d57600084156128355750858301515b600019600386901b1c1916600185901b1785556106fd565b600085815260208120601f198616915b8281101561287c5788860151825594840194600190910190840161285d565b508582101561289a5787850151600019600388901b60f8161c191681555b5050505050600190811b01905550565b634e487b7160e01b600052603160045260246000fdfea2646970667358221220a7712f389f4bf008b18ebed579b69adcb0538576b43a4ac390c1b0e1dd002c7664736f6c63430008130033","opcodes":"PUSH1 0x80 PUSH1 0x40 MSTORE CALLVALUE DUP1 ISZERO PUSH3 0x11 JUMPI PUSH1 0x0 DUP1 REVERT JUMPDEST POP PUSH1 0x40 MLOAD PUSH3 0x2E5C CODESIZE SUB DUP1 PUSH3 0x2E5C DUP4 CODECOPY DUP2 ADD PUSH1 0x40 DUP2 SWAP1 MSTORE PUSH3 0x34 SWAP2 PUSH3 0x315 JUMP JUMPDEST DUP5 DUP5 DUP5 DUP5 DUP5 DUP5 DUP5 DUP5 DUP5 DUP2 PUSH1 0x1 PUSH1 0x1 PUSH1 0xA0 SHL SUB DUP2 AND PUSH3 0x66 JUMPI PUSH1 0x40 MLOAD PUSH4 0x6B620DB PUSH1 0xE2 SHL DUP2 MSTORE PUSH1 0x4 ADD PUSH1 0x40 MLOAD DUP1 SWAP2 SUB SWAP1 REVERT JUMPDEST PUSH3 0x71 DUP2 PUSH3 0x181 JUMP JUMPDEST POP PUSH1 0x40 DUP1 MLOAD DUP1 DUP3 ADD SWAP1 SWAP2 MSTORE PUSH1 0x4 DUP2 MSTORE PUSH4 0x29365989 PUSH1 0xE2 SHL PUSH1 0x20 DUP3 ADD MSTORE PUSH3 0xBA SWAP1 PUSH32 0xEAFEC4D89FA9619884B60000A4D96624A38F7AC2D8D9A604ECF07C12C77E480C SWAP1 PUSH3 0x1EF JUMP JUMPDEST PUSH3 0xE6 PUSH32 0xDEBA1E292F8BA88238E10AB3C7F88BD4BE4FAC56CAD5194B6ECCEAF653468AF1 DUP6 PUSH3 0x1EF JUMP JUMPDEST PUSH3 0x112 PUSH32 0x2F0A68AB07768E01943A599E73362A0E17A63A72E94DD2E384D2C1D4DB932756 DUP5 PUSH3 0x1EF JUMP JUMPDEST PUSH1 0x40 DUP1 MLOAD PUSH1 0x20 DUP2 ADD DUP4 SWAP1 MSTORE PUSH3 0x15B SWAP2 PUSH32 0xE0261FA95DB2EB3B5439BD033CDA66D56B96F92F243A8228FD87550ED7BDFDB3 SWAP2 ADD PUSH1 0x40 DUP1 MLOAD PUSH1 0x1F NOT DUP2 DUP5 SUB ADD DUP2 MSTORE SWAP2 SWAP1 MSTORE PUSH3 0x1EF JUMP JUMPDEST POP POP PUSH1 0x2 DUP1 SLOAD PUSH1 0xFF NOT AND SWAP4 ISZERO ISZERO SWAP4 SWAP1 SWAP4 OR SWAP1 SWAP3 SSTORE POP PUSH3 0x556 SWAP10 POP POP POP POP POP POP POP POP POP POP JUMP JUMPDEST PUSH1 0x0 SLOAD PUSH1 0x1 PUSH1 0x1 PUSH1 0xA0 SHL SUB DUP3 DUP2 AND SWAP2 AND EQ PUSH3 0x1EC JUMPI PUSH1 0x0 DUP1 SLOAD PUSH1 0x40 MLOAD PUSH1 0x1 PUSH1 0x1 PUSH1 0xA0 SHL SUB DUP1 DUP6 AND SWAP4 SWAP3 AND SWAP2 PUSH32 0x8BE0079C531659141344CD1FD0A4F28419497F9722A3DAAFE3B4186F6B6457E0 SWAP2 LOG3 PUSH1 0x0 DUP1 SLOAD PUSH1 0x1 PUSH1 0x1 PUSH1 0xA0 SHL SUB NOT AND PUSH1 0x1 PUSH1 0x1 PUSH1 0xA0 SHL SUB DUP4 AND OR SWAP1 SSTORE JUMPDEST POP JUMP JUMPDEST PUSH1 0x0 DUP3 DUP2 MSTORE PUSH1 0x1 PUSH1 0x20 MSTORE PUSH1 0x40 SWAP1 KECCAK256 PUSH3 0x209 DUP3 DUP3 PUSH3 0x455 JUMP JUMPDEST POP DUP2 PUSH32 0xECE574603820D07BC9B91F2A932BAADF4628AABCB8AFBA49776529C14A6104B2 DUP3 PUSH1 0x40 MLOAD PUSH3 0x23C SWAP2 SWAP1 PUSH3 0x521 JUMP JUMPDEST PUSH1 0x40 MLOAD DUP1 SWAP2 SUB SWAP1 LOG2 POP POP JUMP JUMPDEST PUSH4 0x4E487B71 PUSH1 0xE0 SHL PUSH1 0x0 MSTORE PUSH1 0x41 PUSH1 0x4 MSTORE PUSH1 0x24 PUSH1 0x0 REVERT JUMPDEST PUSH1 0x0 JUMPDEST DUP4 DUP2 LT ISZERO PUSH3 0x27B JUMPI DUP2 DUP2 ADD MLOAD DUP4 DUP3 ADD MSTORE PUSH1 0x20 ADD PUSH3 0x261 JUMP JUMPDEST POP POP PUSH1 0x0 SWAP2 ADD MSTORE JUMP JUMPDEST PUSH1 0x0 DUP3 PUSH1 0x1F DUP4 ADD SLT PUSH3 0x296 JUMPI PUSH1 0x0 DUP1 REVERT JUMPDEST DUP2 MLOAD PUSH1 0x1 PUSH1 0x1 PUSH1 0x40 SHL SUB DUP1 DUP3 GT ISZERO PUSH3 0x2B3 JUMPI PUSH3 0x2B3 PUSH3 0x248 JUMP JUMPDEST PUSH1 0x40 MLOAD PUSH1 0x1F DUP4 ADD PUSH1 0x1F NOT SWAP1 DUP2 AND PUSH1 0x3F ADD AND DUP2 ADD SWAP1 DUP3 DUP3 GT DUP2 DUP4 LT OR ISZERO PUSH3 0x2DE JUMPI PUSH3 0x2DE PUSH3 0x248 JUMP JUMPDEST DUP2 PUSH1 0x40 MSTORE DUP4 DUP2 MSTORE DUP7 PUSH1 0x20 DUP6 DUP9 ADD ADD GT ISZERO PUSH3 0x2F8 JUMPI PUSH1 0x0 DUP1 REVERT JUMPDEST PUSH3 0x30B DUP5 PUSH1 0x20 DUP4 ADD PUSH1 0x20 DUP10 ADD PUSH3 0x25E JUMP JUMPDEST SWAP7 SWAP6 POP POP POP POP POP POP JUMP JUMPDEST PUSH1 0x0 DUP1 PUSH1 0x0 DUP1 PUSH1 0x0 PUSH1 0xA0 DUP7 DUP9 SUB SLT ISZERO PUSH3 0x32E JUMPI PUSH1 0x0 DUP1 REVERT JUMPDEST DUP6 MLOAD PUSH1 0x1 PUSH1 0x1 PUSH1 0x40 SHL SUB DUP1 DUP3 GT ISZERO PUSH3 0x346 JUMPI PUSH1 0x0 DUP1 REVERT JUMPDEST PUSH3 0x354 DUP10 DUP4 DUP11 ADD PUSH3 0x284 JUMP JUMPDEST SWAP7 POP PUSH1 0x20 DUP9 ADD MLOAD SWAP2 POP DUP1 DUP3 GT ISZERO PUSH3 0x36B JUMPI PUSH1 0x0 DUP1 REVERT JUMPDEST POP PUSH3 0x37A DUP9 DUP3 DUP10 ADD PUSH3 0x284 JUMP JUMPDEST PUSH1 0x40 DUP9 ADD MLOAD SWAP1 SWAP6 POP SWAP1 POP PUSH1 0x1 PUSH1 0x1 PUSH1 0xA0 SHL SUB DUP2 AND DUP2 EQ PUSH3 0x39A JUMPI PUSH1 0x0 DUP1 REVERT JUMPDEST PUSH1 0x60 DUP8 ADD MLOAD PUSH1 0x80 DUP9 ADD MLOAD SWAP2 SWAP5 POP SWAP3 POP DUP1 ISZERO ISZERO DUP2 EQ PUSH3 0x3B8 JUMPI PUSH1 0x0 DUP1 REVERT JUMPDEST DUP1 SWAP2 POP POP SWAP3 SWAP6 POP SWAP3 SWAP6 SWAP1 SWAP4 POP JUMP JUMPDEST PUSH1 0x1 DUP2 DUP2 SHR SWAP1 DUP3 AND DUP1 PUSH3 0x3DB JUMPI PUSH1 0x7F DUP3 AND SWAP2 POP JUMPDEST PUSH1 0x20 DUP3 LT DUP2 SUB PUSH3 0x3FC JUMPI PUSH4 0x4E487B71 PUSH1 0xE0 SHL PUSH1 0x0 MSTORE PUSH1 0x22 PUSH1 0x4 MSTORE PUSH1 0x24 PUSH1 0x0 REVERT JUMPDEST POP SWAP2 SWAP1 POP JUMP JUMPDEST PUSH1 0x1F DUP3 GT ISZERO PUSH3 0x450 JUMPI PUSH1 0x0 DUP2 DUP2 MSTORE PUSH1 0x20 DUP2 KECCAK256 PUSH1 0x1F DUP6 ADD PUSH1 0x5 SHR DUP2 ADD PUSH1 0x20 DUP7 LT ISZERO PUSH3 0x42B JUMPI POP DUP1 JUMPDEST PUSH1 0x1F DUP6 ADD PUSH1 0x5 SHR DUP3 ADD SWAP2 POP JUMPDEST DUP2 DUP2 LT ISZERO PUSH3 0x44C JUMPI DUP3 DUP2 SSTORE PUSH1 0x1 ADD PUSH3 0x437 JUMP JUMPDEST POP POP POP JUMPDEST POP POP POP JUMP JUMPDEST DUP2 MLOAD PUSH1 0x1 PUSH1 0x1 PUSH1 0x40 SHL SUB DUP2 GT ISZERO PUSH3 0x471 JUMPI PUSH3 0x471 PUSH3 0x248 JUMP JUMPDEST PUSH3 0x489 DUP2 PUSH3 0x482 DUP5 SLOAD PUSH3 0x3C6 JUMP JUMPDEST DUP5 PUSH3 0x402 JUMP JUMPDEST PUSH1 0x20 DUP1 PUSH1 0x1F DUP4 GT PUSH1 0x1 DUP2 EQ PUSH3 0x4C1 JUMPI PUSH1 0x0 DUP5 ISZERO PUSH3 0x4A8 JUMPI POP DUP6 DUP4 ADD MLOAD JUMPDEST PUSH1 0x0 NOT PUSH1 0x3 DUP7 SWAP1 SHL SHR NOT AND PUSH1 0x1 DUP6 SWAP1 SHL OR DUP6 SSTORE PUSH3 0x44C JUMP JUMPDEST PUSH1 0x0 DUP6 DUP2 MSTORE PUSH1 0x20 DUP2 KECCAK256 PUSH1 0x1F NOT DUP7 AND SWAP2 JUMPDEST DUP3 DUP2 LT ISZERO PUSH3 0x4F2 JUMPI DUP9 DUP7 ADD MLOAD DUP3 SSTORE SWAP5 DUP5 ADD SWAP5 PUSH1 0x1 SWAP1 SWAP2 ADD SWAP1 DUP5 ADD PUSH3 0x4D1 JUMP JUMPDEST POP DUP6 DUP3 LT ISZERO PUSH3 0x511 JUMPI DUP8 DUP6 ADD MLOAD PUSH1 0x0 NOT PUSH1 0x3 DUP9 SWAP1 SHL PUSH1 0xF8 AND SHR NOT AND DUP2 SSTORE JUMPDEST POP POP POP POP POP PUSH1 0x1 SWAP1 DUP2 SHL ADD SWAP1 SSTORE POP JUMP JUMPDEST PUSH1 0x20 DUP2 MSTORE PUSH1 0x0 DUP3 MLOAD DUP1 PUSH1 0x20 DUP5 ADD MSTORE PUSH3 0x542 DUP2 PUSH1 0x40 DUP6 ADD PUSH1 0x20 DUP8 ADD PUSH3 0x25E JUMP JUMPDEST PUSH1 0x1F ADD PUSH1 0x1F NOT AND SWAP2 SWAP1 SWAP2 ADD PUSH1 0x40 ADD SWAP3 SWAP2 POP POP JUMP JUMPDEST PUSH2 0x28F6 DUP1 PUSH3 0x566 PUSH1 0x0 CODECOPY PUSH1 0x0 RETURN INVALID PUSH1 0x80 PUSH1 0x40 MSTORE PUSH1 0x4 CALLDATASIZE LT PUSH2 0x16E JUMPI PUSH1 0x0 CALLDATALOAD PUSH1 0xE0 SHR DUP1 PUSH4 0x715018A6 GT PUSH2 0xCB JUMPI DUP1 PUSH4 0x8DA5CB5B GT PUSH2 0x7F JUMPI DUP1 PUSH4 0xD72FC29A GT PUSH2 0x59 JUMPI DUP1 PUSH4 0xD72FC29A EQ PUSH2 0x493 JUMPI DUP1 PUSH4 0xDEDFF9C6 EQ PUSH2 0x4C0 JUMPI DUP1 PUSH4 0xF2FDE38B EQ PUSH2 0x4E0 JUMPI PUSH2 0x1E2 JUMP JUMPDEST DUP1 PUSH4 0x8DA5CB5B EQ PUSH2 0x438 JUMPI DUP1 PUSH4 0x97902421 EQ PUSH2 0x460 JUMPI DUP1 PUSH4 0xB49506FD EQ PUSH2 0x473 JUMPI PUSH2 0x1E2 JUMP JUMPDEST DUP1 PUSH4 0x760D9BBA GT PUSH2 0xB0 JUMPI DUP1 PUSH4 0x760D9BBA EQ PUSH2 0x3E5 JUMPI DUP1 PUSH4 0x78381670 EQ PUSH2 0x405 JUMPI DUP1 PUSH4 0x7F23690C EQ PUSH2 0x425 JUMPI PUSH2 0x1E2 JUMP JUMPDEST DUP1 PUSH4 0x715018A6 EQ PUSH2 0x3B0 JUMPI DUP1 PUSH4 0x7580D920 EQ PUSH2 0x3C5 JUMPI PUSH2 0x1E2 JUMP JUMPDEST DUP1 PUSH4 0x313CE567 GT PUSH2 0x122 JUMPI DUP1 PUSH4 0x65AEAA95 GT PUSH2 0x107 JUMPI DUP1 PUSH4 0x65AEAA95 EQ PUSH2 0x32D JUMPI DUP1 PUSH4 0x6963D438 EQ PUSH2 0x34D JUMPI DUP1 PUSH4 0x70A08231 EQ PUSH2 0x37A JUMPI PUSH2 0x1E2 JUMP JUMPDEST DUP1 PUSH4 0x313CE567 EQ PUSH2 0x2D9 JUMPI DUP1 PUSH4 0x54F6127F EQ PUSH2 0x300 JUMPI PUSH2 0x1E2 JUMP JUMPDEST DUP1 PUSH4 0x2BC1DA82 GT PUSH2 0x153 JUMPI DUP1 PUSH4 0x2BC1DA82 EQ PUSH2 0x277 JUMPI DUP1 PUSH4 0x2D7667C9 EQ PUSH2 0x299 JUMPI DUP1 PUSH4 0x30D0DC37 EQ PUSH2 0x2B9 JUMPI PUSH2 0x1E2 JUMP JUMPDEST DUP1 PUSH4 0x1FFC9A7 EQ PUSH2 0x223 JUMPI DUP1 PUSH4 0x18160DDD EQ PUSH2 0x258 JUMPI PUSH2 0x1E2 JUMP JUMPDEST CALLDATASIZE PUSH2 0x1E2 JUMPI CALLVALUE PUSH1 0x0 SUB PUSH2 0x1B0 JUMPI PUSH1 0x40 MLOAD PUSH4 0xE5099EE3 PUSH1 0xE0 SHL DUP2 MSTORE PUSH1 0x4 ADD PUSH2 0x1A7 SWAP1 PUSH1 0x20 DUP1 DUP3 MSTORE PUSH1 0x4 SWAP1 DUP3 ADD MSTORE PUSH1 0x0 PUSH1 0x40 DUP3 ADD MSTORE PUSH1 0x60 ADD SWAP1 JUMP JUMPDEST PUSH1 0x40 MLOAD DUP1 SWAP2 SUB SWAP1 REVERT JUMPDEST PUSH1 0x40 MLOAD PUSH32 0x388F5ADC00000000000000000000000000000000000000000000000000000000 DUP2 MSTORE PUSH1 0x4 ADD PUSH1 0x40 MLOAD DUP1 SWAP2 SUB SWAP1 REVERT JUMPDEST PUSH1 0x0 CALLDATASIZE PUSH1 0x60 PUSH1 0x4 DUP3 LT ISZERO PUSH2 0x20D JUMPI DUP3 DUP3 PUSH1 0x40 MLOAD PUSH4 0xE5099EE3 PUSH1 0xE0 SHL DUP2 MSTORE PUSH1 0x4 ADD PUSH2 0x1A7 SWAP3 SWAP2 SWAP1 PUSH2 0x1C72 JUMP JUMPDEST PUSH2 0x217 DUP4 DUP4 PUSH2 0x500 JUMP JUMPDEST DUP1 MLOAD SWAP4 POP PUSH1 0x20 ADD SWAP2 POP POP RETURN JUMPDEST CALLVALUE DUP1 ISZERO PUSH2 0x22F JUMPI PUSH1 0x0 DUP1 REVERT JUMPDEST POP PUSH2 0x243 PUSH2 0x23E CALLDATASIZE PUSH1 0x4 PUSH2 0x1CA1 JUMP JUMPDEST PUSH2 0x60F JUMP JUMPDEST PUSH1 0x40 MLOAD SWAP1 ISZERO ISZERO DUP2 MSTORE PUSH1 0x20 ADD JUMPDEST PUSH1 0x40 MLOAD DUP1 SWAP2 SUB SWAP1 RETURN JUMPDEST CALLVALUE DUP1 ISZERO PUSH2 0x264 JUMPI PUSH1 0x0 DUP1 REVERT JUMPDEST POP PUSH1 0x3 SLOAD JUMPDEST PUSH1 0x40 MLOAD SWAP1 DUP2 MSTORE PUSH1 0x20 ADD PUSH2 0x24F JUMP JUMPDEST CALLVALUE DUP1 ISZERO PUSH2 0x283 JUMPI PUSH1 0x0 DUP1 REVERT JUMPDEST POP PUSH2 0x297 PUSH2 0x292 CALLDATASIZE PUSH1 0x4 PUSH2 0x1DAC JUMP JUMPDEST PUSH2 0x65C JUMP JUMPDEST STOP JUMPDEST CALLVALUE DUP1 ISZERO PUSH2 0x2A5 JUMPI PUSH1 0x0 DUP1 REVERT JUMPDEST POP PUSH2 0x297 PUSH2 0x2B4 CALLDATASIZE PUSH1 0x4 PUSH2 0x1FE1 JUMP JUMPDEST PUSH2 0x705 JUMP JUMPDEST CALLVALUE DUP1 ISZERO PUSH2 0x2C5 JUMPI PUSH1 0x0 DUP1 REVERT JUMPDEST POP PUSH2 0x297 PUSH2 0x2D4 CALLDATASIZE PUSH1 0x4 PUSH2 0x20B3 JUMP JUMPDEST PUSH2 0x80D JUMP JUMPDEST CALLVALUE DUP1 ISZERO PUSH2 0x2E5 JUMPI PUSH1 0x0 DUP1 REVERT JUMPDEST POP PUSH2 0x2EE PUSH2 0x8CE JUMP JUMPDEST PUSH1 0x40 MLOAD PUSH1 0xFF SWAP1 SWAP2 AND DUP2 MSTORE PUSH1 0x20 ADD PUSH2 0x24F JUMP JUMPDEST CALLVALUE DUP1 ISZERO PUSH2 0x30C JUMPI PUSH1 0x0 DUP1 REVERT JUMPDEST POP PUSH2 0x320 PUSH2 0x31B CALLDATASIZE PUSH1 0x4 PUSH2 0x2122 JUMP JUMPDEST PUSH2 0x8E7 JUMP JUMPDEST PUSH1 0x40 MLOAD PUSH2 0x24F SWAP2 SWAP1 PUSH2 0x218B JUMP JUMPDEST CALLVALUE DUP1 ISZERO PUSH2 0x339 JUMPI PUSH1 0x0 DUP1 REVERT JUMPDEST POP PUSH2 0x269 PUSH2 0x348 CALLDATASIZE PUSH1 0x4 PUSH2 0x219E JUMP JUMPDEST PUSH2 0x8F2 JUMP JUMPDEST CALLVALUE DUP1 ISZERO PUSH2 0x359 JUMPI PUSH1 0x0 DUP1 REVERT JUMPDEST POP PUSH2 0x36D PUSH2 0x368 CALLDATASIZE PUSH1 0x4 PUSH2 0x21D1 JUMP JUMPDEST PUSH2 0x958 JUMP JUMPDEST PUSH1 0x40 MLOAD PUSH2 0x24F SWAP2 SWAP1 PUSH2 0x2246 JUMP JUMPDEST CALLVALUE DUP1 ISZERO PUSH2 0x386 JUMPI PUSH1 0x0 DUP1 REVERT JUMPDEST POP PUSH2 0x269 PUSH2 0x395 CALLDATASIZE PUSH1 0x4 PUSH2 0x22A8 JUMP JUMPDEST PUSH1 0x1 PUSH1 0x1 PUSH1 0xA0 SHL SUB AND PUSH1 0x0 SWAP1 DUP2 MSTORE PUSH1 0x4 PUSH1 0x20 MSTORE PUSH1 0x40 SWAP1 KECCAK256 SLOAD SWAP1 JUMP JUMPDEST CALLVALUE DUP1 ISZERO PUSH2 0x3BC JUMPI PUSH1 0x0 DUP1 REVERT JUMPDEST POP PUSH2 0x297 PUSH2 0xAA8 JUMP JUMPDEST CALLVALUE DUP1 ISZERO PUSH2 0x3D1 JUMPI PUSH1 0x0 DUP1 REVERT JUMPDEST POP PUSH2 0x297 PUSH2 0x3E0 CALLDATASIZE PUSH1 0x4 PUSH2 0x22C3 JUMP JUMPDEST PUSH2 0xABC JUMP JUMPDEST CALLVALUE DUP1 ISZERO PUSH2 0x3F1 JUMPI PUSH1 0x0 DUP1 REVERT JUMPDEST POP PUSH2 0x297 PUSH2 0x400 CALLDATASIZE PUSH1 0x4 PUSH2 0x22F7 JUMP JUMPDEST PUSH2 0xAD0 JUMP JUMPDEST CALLVALUE DUP1 ISZERO PUSH2 0x411 JUMPI PUSH1 0x0 DUP1 REVERT JUMPDEST POP PUSH2 0x297 PUSH2 0x420 CALLDATASIZE PUSH1 0x4 PUSH2 0x2363 JUMP JUMPDEST PUSH2 0xAF8 JUMP JUMPDEST PUSH2 0x297 PUSH2 0x433 CALLDATASIZE PUSH1 0x4 PUSH2 0x23B3 JUMP JUMPDEST PUSH2 0xBF5 JUMP JUMPDEST CALLVALUE DUP1 ISZERO PUSH2 0x444 JUMPI PUSH1 0x0 DUP1 REVERT JUMPDEST POP PUSH1 0x0 SLOAD PUSH1 0x40 MLOAD PUSH1 0x1 PUSH1 0x1 PUSH1 0xA0 SHL SUB SWAP1 SWAP2 AND DUP2 MSTORE PUSH1 0x20 ADD PUSH2 0x24F JUMP JUMPDEST PUSH2 0x297 PUSH2 0x46E CALLDATASIZE PUSH1 0x4 PUSH2 0x23FA JUMP JUMPDEST PUSH2 0xC2A JUMP JUMPDEST CALLVALUE DUP1 ISZERO PUSH2 0x47F JUMPI PUSH1 0x0 DUP1 REVERT JUMPDEST POP PUSH2 0x297 PUSH2 0x48E CALLDATASIZE PUSH1 0x4 PUSH2 0x1DAC JUMP JUMPDEST PUSH2 0xD1C JUMP JUMPDEST CALLVALUE DUP1 ISZERO PUSH2 0x49F JUMPI PUSH1 0x0 DUP1 REVERT JUMPDEST POP PUSH2 0x4B3 PUSH2 0x4AE CALLDATASIZE PUSH1 0x4 PUSH2 0x22A8 JUMP JUMPDEST PUSH2 0xD5C JUMP JUMPDEST PUSH1 0x40 MLOAD PUSH2 0x24F SWAP2 SWAP1 PUSH2 0x2454 JUMP JUMPDEST CALLVALUE DUP1 ISZERO PUSH2 0x4CC JUMPI PUSH1 0x0 DUP1 REVERT JUMPDEST POP PUSH2 0x36D PUSH2 0x4DB CALLDATASIZE PUSH1 0x4 PUSH2 0x24A1 JUMP JUMPDEST PUSH2 0xD80 JUMP JUMPDEST CALLVALUE DUP1 ISZERO PUSH2 0x4EC JUMPI PUSH1 0x0 DUP1 REVERT JUMPDEST POP PUSH2 0x297 PUSH2 0x4FB CALLDATASIZE PUSH1 0x4 PUSH2 0x22A8 JUMP JUMPDEST PUSH2 0xE2B JUMP JUMPDEST PUSH1 0x60 PUSH1 0x0 PUSH2 0x519 PUSH1 0x0 CALLDATALOAD PUSH1 0x1 PUSH1 0x1 PUSH1 0xE0 SHL SUB NOT AND PUSH2 0xE7F JUMP JUMPDEST POP SWAP1 POP PUSH1 0x1 PUSH1 0x1 PUSH1 0xA0 SHL SUB DUP2 AND PUSH2 0x56A JUMPI PUSH1 0x40 MLOAD PUSH32 0xBB370B2B00000000000000000000000000000000000000000000000000000000 DUP2 MSTORE PUSH1 0x1 PUSH1 0x1 PUSH1 0xE0 SHL SUB NOT PUSH1 0x0 CALLDATALOAD AND PUSH1 0x4 DUP3 ADD MSTORE PUSH1 0x24 ADD PUSH2 0x1A7 JUMP JUMPDEST PUSH1 0x0 DUP1 DUP3 PUSH1 0x1 PUSH1 0x1 PUSH1 0xA0 SHL SUB AND CALLVALUE DUP8 DUP8 CALLER CALLVALUE PUSH1 0x40 MLOAD PUSH1 0x20 ADD PUSH2 0x58F SWAP5 SWAP4 SWAP3 SWAP2 SWAP1 PUSH2 0x24D6 JUMP JUMPDEST PUSH1 0x40 DUP1 MLOAD PUSH1 0x1F NOT DUP2 DUP5 SUB ADD DUP2 MSTORE SWAP1 DUP3 SWAP1 MSTORE PUSH2 0x5A9 SWAP2 PUSH2 0x2506 JUMP JUMPDEST PUSH1 0x0 PUSH1 0x40 MLOAD DUP1 DUP4 SUB DUP2 DUP6 DUP8 GAS CALL SWAP3 POP POP POP RETURNDATASIZE DUP1 PUSH1 0x0 DUP2 EQ PUSH2 0x5E6 JUMPI PUSH1 0x40 MLOAD SWAP2 POP PUSH1 0x1F NOT PUSH1 0x3F RETURNDATASIZE ADD AND DUP3 ADD PUSH1 0x40 MSTORE RETURNDATASIZE DUP3 MSTORE RETURNDATASIZE PUSH1 0x0 PUSH1 0x20 DUP5 ADD RETURNDATACOPY PUSH2 0x5EB JUMP JUMPDEST PUSH1 0x60 SWAP2 POP JUMPDEST POP SWAP2 POP SWAP2 POP DUP2 ISZERO PUSH2 0x600 JUMPI SWAP3 POP PUSH2 0x609 SWAP2 POP POP JUMP JUMPDEST DUP1 MLOAD DUP1 PUSH1 0x20 DUP4 ADD REVERT JUMPDEST SWAP3 SWAP2 POP POP JUMP JUMPDEST PUSH1 0x0 PUSH1 0x1 PUSH1 0x1 PUSH1 0xE0 SHL SUB NOT DUP3 AND PUSH32 0xC52D600800000000000000000000000000000000000000000000000000000000 EQ DUP1 PUSH2 0x64D JUMPI POP PUSH2 0x64D DUP3 PUSH2 0xF29 JUMP JUMPDEST DUP1 PUSH2 0x609 JUMPI POP PUSH2 0x609 DUP3 PUSH2 0xF67 JUMP JUMPDEST PUSH1 0x0 PUSH2 0x668 DUP5 CALLER PUSH2 0x8F2 JUMP JUMPDEST SWAP1 POP DUP1 PUSH1 0x0 SUB PUSH2 0x6AF JUMPI PUSH1 0x40 MLOAD PUSH32 0xCBA6E97700000000000000000000000000000000000000000000000000000000 DUP2 MSTORE PUSH1 0x1 PUSH1 0x1 PUSH1 0xA0 SHL SUB DUP6 AND PUSH1 0x4 DUP3 ADD MSTORE PUSH1 0x24 ADD PUSH2 0x1A7 JUMP JUMPDEST PUSH1 0x0 PUSH2 0x6BB DUP5 DUP4 PUSH2 0x2538 JUMP JUMPDEST SWAP1 POP PUSH2 0x6CB CALLER DUP7 DUP4 PUSH1 0x1 DUP8 PUSH2 0xFA5 JUMP JUMPDEST PUSH1 0x0 CALLER DUP3 DUP6 PUSH1 0x40 MLOAD PUSH1 0x20 ADD PUSH2 0x6E2 SWAP4 SWAP3 SWAP2 SWAP1 PUSH2 0x254B JUMP JUMPDEST PUSH1 0x40 MLOAD PUSH1 0x20 DUP2 DUP4 SUB SUB DUP2 MSTORE SWAP1 PUSH1 0x40 MSTORE SWAP1 POP PUSH2 0x6FD DUP7 DUP3 PUSH2 0x114A JUMP JUMPDEST POP POP POP POP POP POP JUMP JUMPDEST DUP5 MLOAD DUP5 MLOAD DUP2 EQ ISZERO DUP1 PUSH2 0x718 JUMPI POP DUP4 MLOAD DUP2 EQ ISZERO JUMPDEST DUP1 PUSH2 0x724 JUMPI POP DUP3 MLOAD DUP2 EQ ISZERO JUMPDEST DUP1 PUSH2 0x730 JUMPI POP DUP2 MLOAD DUP2 EQ ISZERO JUMPDEST ISZERO PUSH2 0x767 JUMPI PUSH1 0x40 MLOAD PUSH32 0x263EEE8D00000000000000000000000000000000000000000000000000000000 DUP2 MSTORE PUSH1 0x4 ADD PUSH1 0x40 MLOAD DUP1 SWAP2 SUB SWAP1 REVERT JUMPDEST PUSH1 0x0 JUMPDEST DUP2 DUP2 LT ISZERO PUSH2 0x804 JUMPI PUSH2 0x7FC DUP8 DUP3 DUP2 MLOAD DUP2 LT PUSH2 0x787 JUMPI PUSH2 0x787 PUSH2 0x257C JUMP JUMPDEST PUSH1 0x20 MUL PUSH1 0x20 ADD ADD MLOAD DUP8 DUP4 DUP2 MLOAD DUP2 LT PUSH2 0x7A1 JUMPI PUSH2 0x7A1 PUSH2 0x257C JUMP JUMPDEST PUSH1 0x20 MUL PUSH1 0x20 ADD ADD MLOAD DUP8 DUP5 DUP2 MLOAD DUP2 LT PUSH2 0x7BB JUMPI PUSH2 0x7BB PUSH2 0x257C JUMP JUMPDEST PUSH1 0x20 MUL PUSH1 0x20 ADD ADD MLOAD DUP8 DUP6 DUP2 MLOAD DUP2 LT PUSH2 0x7D5 JUMPI PUSH2 0x7D5 PUSH2 0x257C JUMP JUMPDEST PUSH1 0x20 MUL PUSH1 0x20 ADD ADD MLOAD DUP8 DUP7 DUP2 MLOAD DUP2 LT PUSH2 0x7EF JUMPI PUSH2 0x7EF PUSH2 0x257C JUMP JUMPDEST PUSH1 0x20 MUL PUSH1 0x20 ADD ADD MLOAD PUSH2 0xAD0 JUMP JUMPDEST PUSH1 0x1 ADD PUSH2 0x76A JUMP JUMPDEST POP POP POP POP POP POP POP JUMP JUMPDEST CALLER PUSH1 0x1 PUSH1 0x1 PUSH1 0xA0 SHL SUB DUP5 AND EQ DUP1 ISZERO SWAP1 PUSH2 0x82F JUMPI POP CALLER PUSH1 0x1 PUSH1 0x1 PUSH1 0xA0 SHL SUB DUP6 AND EQ ISZERO JUMPDEST ISZERO PUSH2 0x87F JUMPI PUSH1 0x40 MLOAD PUSH32 0x1A525B3200000000000000000000000000000000000000000000000000000000 DUP2 MSTORE CALLER PUSH1 0x4 DUP3 ADD MSTORE PUSH1 0x1 PUSH1 0x1 PUSH1 0xA0 SHL SUB DUP1 DUP6 AND PUSH1 0x24 DUP4 ADD MSTORE DUP6 AND PUSH1 0x44 DUP3 ADD MSTORE PUSH1 0x64 ADD PUSH2 0x1A7 JUMP JUMPDEST PUSH2 0x88D DUP4 DUP6 PUSH1 0x0 DUP6 DUP6 PUSH2 0xFA5 JUMP JUMPDEST DUP2 ISZERO PUSH2 0x8C8 JUMPI PUSH1 0x0 DUP4 PUSH1 0x0 DUP4 PUSH1 0x40 MLOAD PUSH1 0x20 ADD PUSH2 0x8AB SWAP4 SWAP3 SWAP2 SWAP1 PUSH2 0x2592 JUMP JUMPDEST PUSH1 0x40 MLOAD PUSH1 0x20 DUP2 DUP4 SUB SUB DUP2 MSTORE SWAP1 PUSH1 0x40 MSTORE SWAP1 POP PUSH2 0x8C6 DUP6 DUP3 PUSH2 0x114A JUMP JUMPDEST POP JUMPDEST POP POP POP POP JUMP JUMPDEST PUSH1 0x2 SLOAD PUSH1 0x0 SWAP1 PUSH1 0xFF AND PUSH2 0x8E1 JUMPI POP PUSH1 0x12 SWAP1 JUMP JUMPDEST POP PUSH1 0x0 SWAP1 JUMP JUMPDEST PUSH1 0x60 PUSH2 0x609 DUP3 PUSH2 0x1175 JUMP JUMPDEST PUSH1 0x0 DUP3 PUSH1 0x1 PUSH1 0x1 PUSH1 0xA0 SHL SUB AND DUP3 PUSH1 0x1 PUSH1 0x1 PUSH1 0xA0 SHL SUB AND SUB PUSH2 0x92C JUMPI POP PUSH1 0x1 PUSH1 0x1 PUSH1 0xA0 SHL SUB DUP2 AND PUSH1 0x0 SWAP1 DUP2 MSTORE PUSH1 0x4 PUSH1 0x20 MSTORE PUSH1 0x40 SWAP1 KECCAK256 SLOAD PUSH2 0x609 JUMP JUMPDEST POP PUSH1 0x1 PUSH1 0x1 PUSH1 0xA0 SHL SUB DUP1 DUP3 AND PUSH1 0x0 SWAP1 DUP2 MSTORE PUSH1 0x6 PUSH1 0x20 SWAP1 DUP2 MSTORE PUSH1 0x40 DUP1 DUP4 KECCAK256 SWAP4 DUP7 AND DUP4 MSTORE SWAP3 SWAP1 MSTORE KECCAK256 SLOAD PUSH2 0x609 JUMP JUMPDEST PUSH1 0x60 DUP2 PUSH8 0xFFFFFFFFFFFFFFFF DUP2 GT ISZERO PUSH2 0x973 JUMPI PUSH2 0x973 PUSH2 0x1CE7 JUMP JUMPDEST PUSH1 0x40 MLOAD SWAP1 DUP1 DUP3 MSTORE DUP1 PUSH1 0x20 MUL PUSH1 0x20 ADD DUP3 ADD PUSH1 0x40 MSTORE DUP1 ISZERO PUSH2 0x9A6 JUMPI DUP2 PUSH1 0x20 ADD JUMPDEST PUSH1 0x60 DUP2 MSTORE PUSH1 0x20 ADD SWAP1 PUSH1 0x1 SWAP1 SUB SWAP1 DUP2 PUSH2 0x991 JUMPI SWAP1 POP JUMPDEST POP SWAP1 POP PUSH1 0x0 JUMPDEST DUP3 DUP2 LT ISZERO PUSH2 0xAA1 JUMPI PUSH1 0x0 DUP1 ADDRESS DUP7 DUP7 DUP6 DUP2 DUP2 LT PUSH2 0x9CA JUMPI PUSH2 0x9CA PUSH2 0x257C JUMP JUMPDEST SWAP1 POP PUSH1 0x20 MUL DUP2 ADD SWAP1 PUSH2 0x9DC SWAP2 SWAP1 PUSH2 0x25BD JUMP JUMPDEST PUSH1 0x40 MLOAD PUSH2 0x9EA SWAP3 SWAP2 SWAP1 PUSH2 0x260B JUMP JUMPDEST PUSH1 0x0 PUSH1 0x40 MLOAD DUP1 DUP4 SUB DUP2 DUP6 GAS DELEGATECALL SWAP2 POP POP RETURNDATASIZE DUP1 PUSH1 0x0 DUP2 EQ PUSH2 0xA25 JUMPI PUSH1 0x40 MLOAD SWAP2 POP PUSH1 0x1F NOT PUSH1 0x3F RETURNDATASIZE ADD AND DUP3 ADD PUSH1 0x40 MSTORE RETURNDATASIZE DUP3 MSTORE RETURNDATASIZE PUSH1 0x0 PUSH1 0x20 DUP5 ADD RETURNDATACOPY PUSH2 0xA2A JUMP JUMPDEST PUSH1 0x60 SWAP2 POP JUMPDEST POP SWAP2 POP SWAP2 POP DUP2 PUSH2 0xA79 JUMPI DUP1 MLOAD ISZERO PUSH2 0xA44 JUMPI DUP1 MLOAD DUP1 DUP3 PUSH1 0x20 ADD REVERT JUMPDEST PUSH1 0x40 MLOAD PUSH32 0xB774C28400000000000000000000000000000000000000000000000000000000 DUP2 MSTORE PUSH1 0x4 DUP2 ADD DUP5 SWAP1 MSTORE PUSH1 0x24 ADD PUSH2 0x1A7 JUMP JUMPDEST DUP1 DUP5 DUP5 DUP2 MLOAD DUP2 LT PUSH2 0xA8C JUMPI PUSH2 0xA8C PUSH2 0x257C JUMP JUMPDEST PUSH1 0x20 SWAP1 DUP2 MUL SWAP2 SWAP1 SWAP2 ADD ADD MSTORE POP POP PUSH1 0x1 ADD PUSH2 0x9AC JUMP JUMPDEST POP SWAP3 SWAP2 POP POP JUMP JUMPDEST PUSH2 0xAB0 PUSH2 0x1217 JUMP JUMPDEST PUSH2 0xABA PUSH1 0x0 PUSH2 0x126C JUMP JUMPDEST JUMP JUMPDEST PUSH2 0xAC4 PUSH2 0x1217 JUMP JUMPDEST PUSH2 0x8C8 DUP5 DUP5 DUP5 DUP5 PUSH2 0x12F2 JUMP JUMPDEST CALLER PUSH1 0x1 PUSH1 0x1 PUSH1 0xA0 SHL SUB DUP7 AND EQ PUSH2 0xAEB JUMPI PUSH2 0xAEB CALLER DUP7 DUP6 PUSH2 0x13E1 JUMP JUMPDEST PUSH2 0x8C6 DUP6 DUP6 DUP6 DUP6 DUP6 PUSH2 0x1488 JUMP JUMPDEST CALLER PUSH1 0x1 PUSH1 0x1 PUSH1 0xA0 SHL SUB DUP5 AND EQ DUP1 ISZERO SWAP1 PUSH2 0xB1A JUMPI POP CALLER PUSH1 0x1 PUSH1 0x1 PUSH1 0xA0 SHL SUB DUP6 AND EQ ISZERO JUMPDEST ISZERO PUSH2 0xB6A JUMPI PUSH1 0x40 MLOAD PUSH32 0x98CE294500000000000000000000000000000000000000000000000000000000 DUP2 MSTORE CALLER PUSH1 0x4 DUP3 ADD MSTORE PUSH1 0x1 PUSH1 0x1 PUSH1 0xA0 SHL SUB DUP1 DUP6 AND PUSH1 0x24 DUP4 ADD MSTORE DUP6 AND PUSH1 0x44 DUP3 ADD MSTORE PUSH1 0x64 ADD PUSH2 0x1A7 JUMP JUMPDEST PUSH1 0x0 PUSH2 0xB76 DUP6 DUP6 PUSH2 0x8F2 JUMP JUMPDEST SWAP1 POP DUP3 DUP2 LT ISZERO PUSH2 0xBB2 JUMPI PUSH1 0x40 MLOAD PUSH32 0xEF76C3500000000000000000000000000000000000000000000000000000000 DUP2 MSTORE PUSH1 0x4 ADD PUSH1 0x40 MLOAD DUP1 SWAP2 SUB SWAP1 REVERT JUMPDEST DUP3 DUP2 SUB PUSH2 0xBC3 DUP6 DUP8 DUP4 PUSH1 0x1 DUP8 PUSH2 0xFA5 JUMP JUMPDEST PUSH1 0x0 DUP6 DUP3 DUP6 PUSH1 0x40 MLOAD PUSH1 0x20 ADD PUSH2 0xBDA SWAP4 SWAP3 SWAP2 SWAP1 PUSH2 0x254B JUMP JUMPDEST PUSH1 0x40 MLOAD PUSH1 0x20 DUP2 DUP4 SUB SUB DUP2 MSTORE SWAP1 PUSH1 0x40 MSTORE SWAP1 POP PUSH2 0x804 DUP8 DUP3 PUSH2 0x114A JUMP JUMPDEST PUSH2 0xBFD PUSH2 0x1217 JUMP JUMPDEST CALLVALUE ISZERO PUSH2 0xC1C JUMPI PUSH1 0x40 MLOAD PUSH4 0xF36BA737 PUSH1 0xE0 SHL DUP2 MSTORE PUSH1 0x4 ADD PUSH1 0x40 MLOAD DUP1 SWAP2 SUB SWAP1 REVERT JUMPDEST PUSH2 0xC26 DUP3 DUP3 PUSH2 0x1625 JUMP JUMPDEST POP POP JUMP JUMPDEST PUSH2 0xC32 PUSH2 0x1217 JUMP JUMPDEST CALLVALUE ISZERO PUSH2 0xC51 JUMPI PUSH1 0x40 MLOAD PUSH4 0xF36BA737 PUSH1 0xE0 SHL DUP2 MSTORE PUSH1 0x4 ADD PUSH1 0x40 MLOAD DUP1 SWAP2 SUB SWAP1 REVERT JUMPDEST DUP1 MLOAD DUP3 MLOAD EQ PUSH2 0xC8C JUMPI PUSH1 0x40 MLOAD PUSH32 0x3BCC897900000000000000000000000000000000000000000000000000000000 DUP2 MSTORE PUSH1 0x4 ADD PUSH1 0x40 MLOAD DUP1 SWAP2 SUB SWAP1 REVERT JUMPDEST DUP2 MLOAD PUSH1 0x0 SUB PUSH2 0xCC7 JUMPI PUSH1 0x40 MLOAD PUSH32 0x97DA5F9500000000000000000000000000000000000000000000000000000000 DUP2 MSTORE PUSH1 0x4 ADD PUSH1 0x40 MLOAD DUP1 SWAP2 SUB SWAP1 REVERT JUMPDEST PUSH1 0x0 JUMPDEST DUP3 MLOAD DUP2 LT ISZERO PUSH2 0xD17 JUMPI PUSH2 0xD0F DUP4 DUP3 DUP2 MLOAD DUP2 LT PUSH2 0xCE8 JUMPI PUSH2 0xCE8 PUSH2 0x257C JUMP JUMPDEST PUSH1 0x20 MUL PUSH1 0x20 ADD ADD MLOAD DUP4 DUP4 DUP2 MLOAD DUP2 LT PUSH2 0xD02 JUMPI PUSH2 0xD02 PUSH2 0x257C JUMP JUMPDEST PUSH1 0x20 MUL PUSH1 0x20 ADD ADD MLOAD PUSH2 0x1625 JUMP JUMPDEST PUSH1 0x1 ADD PUSH2 0xCCA JUMP JUMPDEST POP POP POP JUMP JUMPDEST PUSH2 0xD2A CALLER DUP5 DUP5 PUSH1 0x1 DUP6 PUSH2 0xFA5 JUMP JUMPDEST PUSH1 0x0 CALLER DUP4 DUP4 PUSH1 0x40 MLOAD PUSH1 0x20 ADD PUSH2 0xD41 SWAP4 SWAP3 SWAP2 SWAP1 PUSH2 0x254B JUMP JUMPDEST PUSH1 0x40 MLOAD PUSH1 0x20 DUP2 DUP4 SUB SUB DUP2 MSTORE SWAP1 PUSH1 0x40 MSTORE SWAP1 POP PUSH2 0x8C8 DUP5 DUP3 PUSH2 0x114A JUMP JUMPDEST PUSH1 0x1 PUSH1 0x1 PUSH1 0xA0 SHL SUB DUP2 AND PUSH1 0x0 SWAP1 DUP2 MSTORE PUSH1 0x5 PUSH1 0x20 MSTORE PUSH1 0x40 SWAP1 KECCAK256 PUSH1 0x60 SWAP1 PUSH2 0x609 SWAP1 PUSH2 0x162F JUMP JUMPDEST PUSH1 0x60 DUP2 MLOAD PUSH8 0xFFFFFFFFFFFFFFFF DUP2 GT ISZERO PUSH2 0xD9C JUMPI PUSH2 0xD9C PUSH2 0x1CE7 JUMP JUMPDEST PUSH1 0x40 MLOAD SWAP1 DUP1 DUP3 MSTORE DUP1 PUSH1 0x20 MUL PUSH1 0x20 ADD DUP3 ADD PUSH1 0x40 MSTORE DUP1 ISZERO PUSH2 0xDCF JUMPI DUP2 PUSH1 0x20 ADD JUMPDEST PUSH1 0x60 DUP2 MSTORE PUSH1 0x20 ADD SWAP1 PUSH1 0x1 SWAP1 SUB SWAP1 DUP2 PUSH2 0xDBA JUMPI SWAP1 POP JUMPDEST POP SWAP1 POP PUSH1 0x0 JUMPDEST DUP3 MLOAD DUP2 LT ISZERO PUSH2 0xE25 JUMPI PUSH2 0xE00 DUP4 DUP3 DUP2 MLOAD DUP2 LT PUSH2 0xDF3 JUMPI PUSH2 0xDF3 PUSH2 0x257C JUMP JUMPDEST PUSH1 0x20 MUL PUSH1 0x20 ADD ADD MLOAD PUSH2 0x1175 JUMP JUMPDEST DUP3 DUP3 DUP2 MLOAD DUP2 LT PUSH2 0xE12 JUMPI PUSH2 0xE12 PUSH2 0x257C JUMP JUMPDEST PUSH1 0x20 SWAP1 DUP2 MUL SWAP2 SWAP1 SWAP2 ADD ADD MSTORE PUSH1 0x1 ADD PUSH2 0xDD5 JUMP JUMPDEST POP SWAP2 SWAP1 POP JUMP JUMPDEST PUSH2 0xE33 PUSH2 0x1217 JUMP JUMPDEST PUSH1 0x1 PUSH1 0x1 PUSH1 0xA0 SHL SUB DUP2 AND PUSH2 0xE73 JUMPI PUSH1 0x40 MLOAD PUSH32 0x1AD8836C00000000000000000000000000000000000000000000000000000000 DUP2 MSTORE PUSH1 0x4 ADD PUSH1 0x40 MLOAD DUP1 SWAP2 SUB SWAP1 REVERT JUMPDEST PUSH2 0xE7C DUP2 PUSH2 0x126C JUMP JUMPDEST POP JUMP JUMPDEST PUSH1 0x0 DUP1 DUP1 PUSH2 0xEB7 PUSH32 0xCEE78B4094DA8601109600000000000000000000000000000000000000000000 PUSH1 0x1 PUSH1 0x1 PUSH1 0xE0 SHL SUB NOT DUP7 AND PUSH2 0x163C JUMP JUMPDEST SWAP1 POP PUSH1 0x0 PUSH2 0xEC4 DUP3 PUSH2 0x1175 JUMP JUMPDEST SWAP1 POP DUP1 MLOAD PUSH1 0x14 EQ ISZERO DUP1 ISZERO PUSH2 0xED8 JUMPI POP DUP1 MLOAD ISZERO ISZERO JUMPDEST ISZERO PUSH2 0xF11 JUMPI DUP1 PUSH1 0x40 MLOAD PUSH32 0x42BFE79F00000000000000000000000000000000000000000000000000000000 DUP2 MSTORE PUSH1 0x4 ADD PUSH2 0x1A7 SWAP2 SWAP1 PUSH2 0x218B JUMP JUMPDEST PUSH2 0xF1A DUP2 PUSH2 0x261B JUMP JUMPDEST PUSH1 0x60 SHR SWAP6 PUSH1 0x1 SWAP6 POP SWAP4 POP POP POP POP JUMP JUMPDEST PUSH1 0x0 PUSH1 0x1 PUSH1 0x1 PUSH1 0xE0 SHL SUB NOT DUP3 AND PUSH32 0xA918FA6B00000000000000000000000000000000000000000000000000000000 EQ DUP1 PUSH2 0x609 JUMPI POP PUSH2 0x609 DUP3 PUSH2 0x16AD JUMP JUMPDEST PUSH1 0x0 DUP1 PUSH2 0xF7A PUSH4 0x1FFC9A7 PUSH1 0xE0 SHL PUSH2 0xE7F JUMP JUMPDEST POP SWAP1 POP PUSH1 0x1 PUSH1 0x1 PUSH1 0xA0 SHL SUB DUP2 AND PUSH2 0xF94 JUMPI POP PUSH1 0x0 SWAP3 SWAP2 POP POP JUMP JUMPDEST PUSH2 0xF9E DUP2 DUP5 PUSH2 0x16FB JUMP JUMPDEST SWAP4 SWAP3 POP POP POP JUMP JUMPDEST PUSH1 0x1 PUSH1 0x1 PUSH1 0xA0 SHL SUB DUP5 AND PUSH2 0xFE5 JUMPI PUSH1 0x40 MLOAD PUSH32 0x6355E76600000000000000000000000000000000000000000000000000000000 DUP2 MSTORE PUSH1 0x4 ADD PUSH1 0x40 MLOAD DUP1 SWAP2 SUB SWAP1 REVERT JUMPDEST DUP5 PUSH1 0x1 PUSH1 0x1 PUSH1 0xA0 SHL SUB AND DUP5 PUSH1 0x1 PUSH1 0x1 PUSH1 0xA0 SHL SUB AND SUB PUSH2 0x1030 JUMPI PUSH1 0x40 MLOAD PUSH32 0xDAB7504700000000000000000000000000000000000000000000000000000000 DUP2 MSTORE PUSH1 0x4 ADD PUSH1 0x40 MLOAD DUP1 SWAP2 SUB SWAP1 REVERT JUMPDEST PUSH1 0x1 PUSH1 0x1 PUSH1 0xA0 SHL SUB DUP1 DUP7 AND PUSH1 0x0 SWAP1 DUP2 MSTORE PUSH1 0x6 PUSH1 0x20 SWAP1 DUP2 MSTORE PUSH1 0x40 DUP1 DUP4 KECCAK256 SWAP4 DUP9 AND DUP4 MSTORE SWAP3 SWAP1 MSTORE KECCAK256 DUP4 SWAP1 SSTORE DUP3 ISZERO PUSH2 0x10D2 JUMPI PUSH1 0x1 PUSH1 0x1 PUSH1 0xA0 SHL SUB DUP6 AND PUSH1 0x0 SWAP1 DUP2 MSTORE PUSH1 0x5 PUSH1 0x20 MSTORE PUSH1 0x40 SWAP1 KECCAK256 PUSH2 0x1080 SWAP1 DUP6 PUSH2 0x1799 JUMP JUMPDEST POP DUP3 DUP6 PUSH1 0x1 PUSH1 0x1 PUSH1 0xA0 SHL SUB AND DUP6 PUSH1 0x1 PUSH1 0x1 PUSH1 0xA0 SHL SUB AND PUSH32 0xF772A43BFDF4729B196E3FB54A818B91A2CA6C49D10B2E16278752F9F515C25D DUP5 PUSH1 0x40 MLOAD PUSH2 0x10C5 SWAP2 SWAP1 PUSH2 0x218B JUMP JUMPDEST PUSH1 0x40 MLOAD DUP1 SWAP2 SUB SWAP1 LOG4 PUSH2 0x8C6 JUMP JUMPDEST PUSH1 0x1 PUSH1 0x1 PUSH1 0xA0 SHL SUB DUP6 AND PUSH1 0x0 SWAP1 DUP2 MSTORE PUSH1 0x5 PUSH1 0x20 MSTORE PUSH1 0x40 SWAP1 KECCAK256 PUSH2 0x10F4 SWAP1 DUP6 PUSH2 0x17AE JUMP JUMPDEST POP DUP2 ISZERO ISZERO DUP6 PUSH1 0x1 PUSH1 0x1 PUSH1 0xA0 SHL SUB AND DUP6 PUSH1 0x1 PUSH1 0x1 PUSH1 0xA0 SHL SUB AND PUSH32 0xEBF5762D8855CBE012D2CA42FB33A81175E17C8A8751F8859931BA453BD4167 DUP5 PUSH1 0x40 MLOAD PUSH2 0x113B SWAP2 SWAP1 PUSH2 0x218B JUMP JUMPDEST PUSH1 0x40 MLOAD DUP1 SWAP2 SUB SWAP1 LOG4 POP POP POP POP POP JUMP JUMPDEST PUSH2 0xC26 DUP3 PUSH32 0x386072CC5A58E61263B434C722725F21031CD06E7C552CFAA06DB5DE8A320DBC DUP4 PUSH2 0x17C3 JUMP JUMPDEST PUSH1 0x0 DUP2 DUP2 MSTORE PUSH1 0x1 PUSH1 0x20 MSTORE PUSH1 0x40 SWAP1 KECCAK256 DUP1 SLOAD PUSH1 0x60 SWAP2 SWAP1 PUSH2 0x1192 SWAP1 PUSH2 0x2657 JUMP JUMPDEST DUP1 PUSH1 0x1F ADD PUSH1 0x20 DUP1 SWAP2 DIV MUL PUSH1 0x20 ADD PUSH1 0x40 MLOAD SWAP1 DUP2 ADD PUSH1 0x40 MSTORE DUP1 SWAP3 SWAP2 SWAP1 DUP2 DUP2 MSTORE PUSH1 0x20 ADD DUP3 DUP1 SLOAD PUSH2 0x11BE SWAP1 PUSH2 0x2657 JUMP JUMPDEST DUP1 ISZERO PUSH2 0x120B JUMPI DUP1 PUSH1 0x1F LT PUSH2 0x11E0 JUMPI PUSH2 0x100 DUP1 DUP4 SLOAD DIV MUL DUP4 MSTORE SWAP2 PUSH1 0x20 ADD SWAP2 PUSH2 0x120B JUMP JUMPDEST DUP3 ADD SWAP2 SWAP1 PUSH1 0x0 MSTORE PUSH1 0x20 PUSH1 0x0 KECCAK256 SWAP1 JUMPDEST DUP2 SLOAD DUP2 MSTORE SWAP1 PUSH1 0x1 ADD SWAP1 PUSH1 0x20 ADD DUP1 DUP4 GT PUSH2 0x11EE JUMPI DUP3 SWAP1 SUB PUSH1 0x1F AND DUP3 ADD SWAP2 JUMPDEST POP POP POP POP POP SWAP1 POP SWAP2 SWAP1 POP JUMP JUMPDEST CALLER PUSH2 0x122A PUSH1 0x0 SLOAD PUSH1 0x1 PUSH1 0x1 PUSH1 0xA0 SHL SUB AND SWAP1 JUMP JUMPDEST PUSH1 0x1 PUSH1 0x1 PUSH1 0xA0 SHL SUB AND EQ PUSH2 0xABA JUMPI PUSH1 0x40 MLOAD PUSH32 0xBF1169C500000000000000000000000000000000000000000000000000000000 DUP2 MSTORE CALLER PUSH1 0x4 DUP3 ADD MSTORE PUSH1 0x24 ADD PUSH2 0x1A7 JUMP JUMPDEST PUSH1 0x0 SLOAD PUSH1 0x1 PUSH1 0x1 PUSH1 0xA0 SHL SUB DUP3 DUP2 AND SWAP2 AND EQ PUSH2 0xE7C JUMPI PUSH1 0x0 DUP1 SLOAD PUSH1 0x40 MLOAD PUSH1 0x1 PUSH1 0x1 PUSH1 0xA0 SHL SUB DUP1 DUP6 AND SWAP4 SWAP3 AND SWAP2 PUSH32 0x8BE0079C531659141344CD1FD0A4F28419497F9722A3DAAFE3B4186F6B6457E0 SWAP2 LOG3 PUSH1 0x0 DUP1 SLOAD PUSH1 0x1 PUSH1 0x1 PUSH1 0xA0 SHL SUB DUP4 AND PUSH32 0xFFFFFFFFFFFFFFFFFFFFFFFF0000000000000000000000000000000000000000 SWAP1 SWAP2 AND OR SWAP1 SSTORE POP JUMP JUMPDEST PUSH1 0x1 PUSH1 0x1 PUSH1 0xA0 SHL SUB DUP5 AND PUSH2 0x1319 JUMPI PUSH1 0x40 MLOAD PUSH4 0xD2D5EC3 PUSH1 0xE4 SHL DUP2 MSTORE PUSH1 0x4 ADD PUSH1 0x40 MLOAD DUP1 SWAP2 SUB SWAP1 REVERT JUMPDEST DUP3 PUSH1 0x3 PUSH1 0x0 DUP3 DUP3 SLOAD PUSH2 0x132B SWAP2 SWAP1 PUSH2 0x2538 JUMP JUMPDEST SWAP1 SWAP2 SSTORE POP POP PUSH1 0x1 PUSH1 0x1 PUSH1 0xA0 SHL SUB DUP5 AND PUSH1 0x0 SWAP1 DUP2 MSTORE PUSH1 0x4 PUSH1 0x20 MSTORE PUSH1 0x40 DUP2 KECCAK256 DUP1 SLOAD DUP6 SWAP3 SWAP1 PUSH2 0x1358 SWAP1 DUP5 SWAP1 PUSH2 0x2538 JUMP JUMPDEST SWAP1 SWAP2 SSTORE POP POP PUSH1 0x40 MLOAD PUSH1 0x1 PUSH1 0x1 PUSH1 0xA0 SHL SUB DUP6 AND SWAP1 PUSH1 0x0 SWAP1 CALLER SWAP1 PUSH32 0x3997E418D2CEF0B3B0E907B1E39605C3F7D32DBD061E82EA5B4A770D46A160A6 SWAP1 PUSH2 0x13A1 SWAP1 DUP9 SWAP1 DUP9 SWAP1 DUP9 SWAP1 PUSH2 0x268B JUMP JUMPDEST PUSH1 0x40 MLOAD DUP1 SWAP2 SUB SWAP1 LOG4 PUSH1 0x0 CALLER PUSH1 0x0 DUP7 DUP7 DUP6 PUSH1 0x40 MLOAD PUSH1 0x20 ADD PUSH2 0x13C5 SWAP6 SWAP5 SWAP4 SWAP3 SWAP2 SWAP1 PUSH2 0x26AC JUMP JUMPDEST PUSH1 0x40 MLOAD PUSH1 0x20 DUP2 DUP4 SUB SUB DUP2 MSTORE SWAP1 PUSH1 0x40 MSTORE SWAP1 POP PUSH2 0x8C6 DUP6 DUP5 DUP4 PUSH2 0x1857 JUMP JUMPDEST PUSH1 0x1 PUSH1 0x1 PUSH1 0xA0 SHL SUB DUP1 DUP4 AND PUSH1 0x0 SWAP1 DUP2 MSTORE PUSH1 0x6 PUSH1 0x20 SWAP1 DUP2 MSTORE PUSH1 0x40 DUP1 DUP4 KECCAK256 SWAP4 DUP8 AND DUP4 MSTORE SWAP3 SWAP1 MSTORE KECCAK256 SLOAD DUP1 DUP3 GT ISZERO PUSH2 0x1462 JUMPI PUSH1 0x40 MLOAD PUSH32 0xF3A6B69100000000000000000000000000000000000000000000000000000000 DUP2 MSTORE PUSH1 0x1 PUSH1 0x1 PUSH1 0xA0 SHL SUB DUP1 DUP6 AND PUSH1 0x4 DUP4 ADD MSTORE PUSH1 0x24 DUP3 ADD DUP4 SWAP1 MSTORE DUP6 AND PUSH1 0x44 DUP3 ADD MSTORE PUSH1 0x64 DUP2 ADD DUP4 SWAP1 MSTORE PUSH1 0x84 ADD PUSH2 0x1A7 JUMP JUMPDEST PUSH2 0x8C8 DUP4 DUP6 PUSH2 0x1471 DUP6 DUP6 PUSH2 0x26E6 JUMP JUMPDEST PUSH1 0x0 PUSH1 0x40 MLOAD DUP1 PUSH1 0x20 ADD PUSH1 0x40 MSTORE DUP1 PUSH1 0x0 DUP2 MSTORE POP PUSH2 0xFA5 JUMP JUMPDEST PUSH1 0x1 PUSH1 0x1 PUSH1 0xA0 SHL SUB DUP6 AND ISZERO DUP1 PUSH2 0x14A5 JUMPI POP PUSH1 0x1 PUSH1 0x1 PUSH1 0xA0 SHL SUB DUP5 AND ISZERO JUMPDEST ISZERO PUSH2 0x14C3 JUMPI PUSH1 0x40 MLOAD PUSH4 0xD2D5EC3 PUSH1 0xE4 SHL DUP2 MSTORE PUSH1 0x4 ADD PUSH1 0x40 MLOAD DUP1 SWAP2 SUB SWAP1 REVERT JUMPDEST PUSH1 0x1 PUSH1 0x1 PUSH1 0xA0 SHL SUB DUP6 AND PUSH1 0x0 SWAP1 DUP2 MSTORE PUSH1 0x4 PUSH1 0x20 MSTORE PUSH1 0x40 SWAP1 KECCAK256 SLOAD DUP1 DUP5 GT ISZERO PUSH2 0x152F JUMPI PUSH1 0x40 MLOAD PUSH32 0x8D4794900000000000000000000000000000000000000000000000000000000 DUP2 MSTORE PUSH1 0x4 DUP2 ADD DUP3 SWAP1 MSTORE PUSH1 0x1 PUSH1 0x1 PUSH1 0xA0 SHL SUB DUP8 AND PUSH1 0x24 DUP3 ADD MSTORE PUSH1 0x44 DUP2 ADD DUP6 SWAP1 MSTORE PUSH1 0x64 ADD PUSH2 0x1A7 JUMP JUMPDEST PUSH1 0x1 PUSH1 0x1 PUSH1 0xA0 SHL SUB DUP7 AND PUSH1 0x0 SWAP1 DUP2 MSTORE PUSH1 0x4 PUSH1 0x20 MSTORE PUSH1 0x40 DUP2 KECCAK256 DUP1 SLOAD DUP7 SWAP3 SWAP1 PUSH2 0x1557 SWAP1 DUP5 SWAP1 PUSH2 0x26E6 JUMP JUMPDEST SWAP1 SWAP2 SSTORE POP POP PUSH1 0x1 PUSH1 0x1 PUSH1 0xA0 SHL SUB DUP6 AND PUSH1 0x0 SWAP1 DUP2 MSTORE PUSH1 0x4 PUSH1 0x20 MSTORE PUSH1 0x40 DUP2 KECCAK256 DUP1 SLOAD DUP7 SWAP3 SWAP1 PUSH2 0x1584 SWAP1 DUP5 SWAP1 PUSH2 0x2538 JUMP JUMPDEST SWAP3 POP POP DUP2 SWAP1 SSTORE POP DUP5 PUSH1 0x1 PUSH1 0x1 PUSH1 0xA0 SHL SUB AND DUP7 PUSH1 0x1 PUSH1 0x1 PUSH1 0xA0 SHL SUB AND CALLER PUSH1 0x1 PUSH1 0x1 PUSH1 0xA0 SHL SUB AND PUSH32 0x3997E418D2CEF0B3B0E907B1E39605C3F7D32DBD061E82EA5B4A770D46A160A6 DUP8 DUP8 DUP8 PUSH1 0x40 MLOAD PUSH2 0x15DC SWAP4 SWAP3 SWAP2 SWAP1 PUSH2 0x268B JUMP JUMPDEST PUSH1 0x40 MLOAD DUP1 SWAP2 SUB SWAP1 LOG4 PUSH1 0x0 CALLER DUP8 DUP8 DUP8 DUP7 PUSH1 0x40 MLOAD PUSH1 0x20 ADD PUSH2 0x15FF SWAP6 SWAP5 SWAP4 SWAP3 SWAP2 SWAP1 PUSH2 0x26AC JUMP JUMPDEST PUSH1 0x40 MLOAD PUSH1 0x20 DUP2 DUP4 SUB SUB DUP2 MSTORE SWAP1 PUSH1 0x40 MSTORE SWAP1 POP PUSH2 0x161A DUP8 DUP3 PUSH2 0x194A JUMP JUMPDEST PUSH2 0x804 DUP7 DUP6 DUP4 PUSH2 0x1857 JUMP JUMPDEST PUSH2 0xC26 DUP3 DUP3 PUSH2 0x1975 JUMP JUMPDEST PUSH1 0x60 PUSH1 0x0 PUSH2 0xF9E DUP4 PUSH2 0x1AD5 JUMP JUMPDEST PUSH1 0x40 DUP1 MLOAD PUSH32 0xFFFFFFFFFFFFFFFFFFFF00000000000000000000000000000000000000000000 DUP5 AND PUSH1 0x20 DUP3 ADD MSTORE PUSH1 0x0 PUSH1 0x2A DUP3 ADD DUP2 SWAP1 MSTORE PUSH12 0xFFFFFFFFFFFFFFFFFFFFFFFF NOT DUP5 AND PUSH1 0x2C DUP4 ADD MSTORE SWAP2 DUP3 SWAP2 ADD PUSH1 0x40 MLOAD PUSH1 0x20 DUP2 DUP4 SUB SUB DUP2 MSTORE SWAP1 PUSH1 0x40 MSTORE SWAP1 POP DUP1 PUSH2 0x16A5 SWAP1 PUSH2 0x26F9 JUMP JUMPDEST SWAP5 SWAP4 POP POP POP POP JUMP JUMPDEST PUSH1 0x0 PUSH1 0x1 PUSH1 0x1 PUSH1 0xE0 SHL SUB NOT DUP3 AND PUSH32 0x629AA69400000000000000000000000000000000000000000000000000000000 EQ DUP1 PUSH2 0x609 JUMPI POP PUSH4 0x1FFC9A7 PUSH1 0xE0 SHL PUSH1 0x1 PUSH1 0x1 PUSH1 0xE0 SHL SUB NOT DUP4 AND EQ PUSH2 0x609 JUMP JUMPDEST PUSH1 0x40 DUP1 MLOAD PUSH1 0x1 PUSH1 0x1 PUSH1 0xE0 SHL SUB NOT DUP4 AND PUSH1 0x24 DUP1 DUP4 ADD SWAP2 SWAP1 SWAP2 MSTORE DUP3 MLOAD DUP1 DUP4 SUB SWAP1 SWAP2 ADD DUP2 MSTORE PUSH1 0x44 SWAP1 SWAP2 ADD SWAP1 SWAP2 MSTORE PUSH1 0x20 DUP1 DUP3 ADD DUP1 MLOAD PUSH28 0xFFFFFFFFFFFFFFFFFFFFFFFFFFFFFFFFFFFFFFFFFFFFFFFFFFFFFFFF AND PUSH4 0x1FFC9A7 PUSH1 0xE0 SHL OR DUP2 MSTORE DUP3 MLOAD PUSH1 0x0 SWAP4 SWAP3 DUP5 SWAP3 DUP4 SWAP3 DUP4 SWAP3 SWAP2 DUP4 SWAP2 SWAP1 DUP11 PUSH2 0x7530 STATICCALL SWAP3 POP RETURNDATASIZE SWAP2 POP PUSH1 0x0 MLOAD SWAP1 POP DUP3 DUP1 ISZERO PUSH2 0x1782 JUMPI POP PUSH1 0x20 DUP3 LT ISZERO JUMPDEST DUP1 ISZERO PUSH2 0x178E JUMPI POP PUSH1 0x0 DUP2 GT JUMPDEST SWAP8 SWAP7 POP POP POP POP POP POP POP JUMP JUMPDEST PUSH1 0x0 PUSH2 0xF9E DUP4 PUSH1 0x1 PUSH1 0x1 PUSH1 0xA0 SHL SUB DUP5 AND PUSH2 0x1B30 JUMP JUMPDEST PUSH1 0x0 PUSH2 0xF9E DUP4 PUSH1 0x1 PUSH1 0x1 PUSH1 0xA0 SHL SUB DUP5 AND PUSH2 0x1B7F JUMP JUMPDEST PUSH2 0x17DD PUSH1 0x1 PUSH1 0x1 PUSH1 0xA0 SHL SUB DUP5 AND PUSH4 0x1AED5A85 PUSH1 0xE2 SHL PUSH2 0x16FB JUMP JUMPDEST ISZERO PUSH2 0xD17 JUMPI PUSH1 0x40 MLOAD PUSH4 0x1AED5A85 PUSH1 0xE2 SHL DUP2 MSTORE PUSH1 0x1 PUSH1 0x1 PUSH1 0xA0 SHL SUB DUP5 AND SWAP1 PUSH4 0x6BB56A14 SWAP1 PUSH2 0x1810 SWAP1 DUP6 SWAP1 DUP6 SWAP1 PUSH1 0x4 ADD PUSH2 0x271D JUMP JUMPDEST PUSH1 0x0 PUSH1 0x40 MLOAD DUP1 DUP4 SUB DUP2 PUSH1 0x0 DUP8 GAS CALL ISZERO DUP1 ISZERO PUSH2 0x182F JUMPI RETURNDATASIZE PUSH1 0x0 DUP1 RETURNDATACOPY RETURNDATASIZE PUSH1 0x0 REVERT JUMPDEST POP POP POP POP PUSH1 0x40 MLOAD RETURNDATASIZE PUSH1 0x0 DUP3 RETURNDATACOPY PUSH1 0x1F RETURNDATASIZE SWAP1 DUP2 ADD PUSH1 0x1F NOT AND DUP3 ADD PUSH1 0x40 MSTORE PUSH2 0x8C8 SWAP2 SWAP1 DUP2 ADD SWAP1 PUSH2 0x2736 JUMP JUMPDEST PUSH2 0x1868 DUP4 PUSH4 0x1AED5A85 PUSH1 0xE2 SHL PUSH2 0x16FB JUMP JUMPDEST ISZERO PUSH2 0x18BB JUMPI PUSH1 0x40 MLOAD PUSH4 0x1AED5A85 PUSH1 0xE2 SHL DUP2 MSTORE PUSH1 0x1 PUSH1 0x1 PUSH1 0xA0 SHL SUB DUP5 AND SWAP1 PUSH4 0x6BB56A14 SWAP1 PUSH2 0x1810 SWAP1 PUSH32 0x20804611B3E2EA21C480DC465142210ACF4A2485947541770EC1FB87DEE4A55C SWAP1 DUP6 SWAP1 PUSH1 0x4 ADD PUSH2 0x271D JUMP JUMPDEST DUP2 PUSH2 0xD17 JUMPI PUSH1 0x1 PUSH1 0x1 PUSH1 0xA0 SHL SUB DUP4 AND EXTCODESIZE ISZERO PUSH2 0x190D JUMPI PUSH1 0x40 MLOAD PUSH32 0xA608FBB600000000000000000000000000000000000000000000000000000000 DUP2 MSTORE PUSH1 0x1 PUSH1 0x1 PUSH1 0xA0 SHL SUB DUP5 AND PUSH1 0x4 DUP3 ADD MSTORE PUSH1 0x24 ADD PUSH2 0x1A7 JUMP JUMPDEST PUSH1 0x40 MLOAD PUSH32 0x26C247F400000000000000000000000000000000000000000000000000000000 DUP2 MSTORE PUSH1 0x1 PUSH1 0x1 PUSH1 0xA0 SHL SUB DUP5 AND PUSH1 0x4 DUP3 ADD MSTORE PUSH1 0x24 ADD PUSH2 0x1A7 JUMP JUMPDEST PUSH2 0xC26 DUP3 PUSH32 0x429AC7A06903DBC9C13DFCB3C9D11DF8194581FA047C96D7A4171FC7402958EA DUP4 PUSH2 0x17C3 JUMP JUMPDEST PUSH32 0x2145E1D6D074577DC71EF54C3807742B41B053A9352AE6B491331509ACB9750F DUP3 ADD PUSH2 0x19CE JUMPI PUSH1 0x40 MLOAD PUSH32 0x85C169BD00000000000000000000000000000000000000000000000000000000 DUP2 MSTORE PUSH1 0x4 ADD PUSH1 0x40 MLOAD DUP1 SWAP2 SUB SWAP1 REVERT JUMPDEST PUSH32 0xD0F59754F88971FE6BC5A6618CC9D5F1E859C58D16B22D1C7B2D3E2B246CD8AA DUP3 ADD PUSH2 0x1A27 JUMPI PUSH1 0x40 MLOAD PUSH32 0x76755B3800000000000000000000000000000000000000000000000000000000 DUP2 MSTORE PUSH1 0x4 ADD PUSH1 0x40 MLOAD DUP1 SWAP2 SUB SWAP1 REVERT JUMPDEST PUSH32 0x1FD9E056A24D14C4ABC642FCC325992A946906D0DBC57DD70278AAF12842024D DUP3 ADD PUSH2 0x1A80 JUMPI PUSH1 0x40 MLOAD PUSH32 0x4EF6D7FB00000000000000000000000000000000000000000000000000000000 DUP2 MSTORE PUSH1 0x4 ADD PUSH1 0x40 MLOAD DUP1 SWAP2 SUB SWAP1 REVERT JUMPDEST PUSH1 0x0 DUP3 DUP2 MSTORE PUSH1 0x1 PUSH1 0x20 MSTORE PUSH1 0x40 SWAP1 KECCAK256 PUSH2 0x1A98 DUP3 DUP3 PUSH2 0x27EA JUMP JUMPDEST POP DUP2 PUSH32 0xECE574603820D07BC9B91F2A932BAADF4628AABCB8AFBA49776529C14A6104B2 DUP3 PUSH1 0x40 MLOAD PUSH2 0x1AC9 SWAP2 SWAP1 PUSH2 0x218B JUMP JUMPDEST PUSH1 0x40 MLOAD DUP1 SWAP2 SUB SWAP1 LOG2 POP POP JUMP JUMPDEST PUSH1 0x60 DUP2 PUSH1 0x0 ADD DUP1 SLOAD DUP1 PUSH1 0x20 MUL PUSH1 0x20 ADD PUSH1 0x40 MLOAD SWAP1 DUP2 ADD PUSH1 0x40 MSTORE DUP1 SWAP3 SWAP2 SWAP1 DUP2 DUP2 MSTORE PUSH1 0x20 ADD DUP3 DUP1 SLOAD DUP1 ISZERO PUSH2 0x120B JUMPI PUSH1 0x20 MUL DUP3 ADD SWAP2 SWAP1 PUSH1 0x0 MSTORE PUSH1 0x20 PUSH1 0x0 KECCAK256 SWAP1 JUMPDEST DUP2 SLOAD DUP2 MSTORE PUSH1 0x20 ADD SWAP1 PUSH1 0x1 ADD SWAP1 DUP1 DUP4 GT PUSH2 0x1B11 JUMPI POP POP POP POP POP SWAP1 POP SWAP2 SWAP1 POP JUMP JUMPDEST PUSH1 0x0 DUP2 DUP2 MSTORE PUSH1 0x1 DUP4 ADD PUSH1 0x20 MSTORE PUSH1 0x40 DUP2 KECCAK256 SLOAD PUSH2 0x1B77 JUMPI POP DUP2 SLOAD PUSH1 0x1 DUP2 DUP2 ADD DUP5 SSTORE PUSH1 0x0 DUP5 DUP2 MSTORE PUSH1 0x20 DUP1 DUP3 KECCAK256 SWAP1 SWAP4 ADD DUP5 SWAP1 SSTORE DUP5 SLOAD DUP5 DUP3 MSTORE DUP3 DUP7 ADD SWAP1 SWAP4 MSTORE PUSH1 0x40 SWAP1 KECCAK256 SWAP2 SWAP1 SWAP2 SSTORE PUSH2 0x609 JUMP JUMPDEST POP PUSH1 0x0 PUSH2 0x609 JUMP JUMPDEST PUSH1 0x0 DUP2 DUP2 MSTORE PUSH1 0x1 DUP4 ADD PUSH1 0x20 MSTORE PUSH1 0x40 DUP2 KECCAK256 SLOAD DUP1 ISZERO PUSH2 0x1C68 JUMPI PUSH1 0x0 PUSH2 0x1BA3 PUSH1 0x1 DUP4 PUSH2 0x26E6 JUMP JUMPDEST DUP6 SLOAD SWAP1 SWAP2 POP PUSH1 0x0 SWAP1 PUSH2 0x1BB7 SWAP1 PUSH1 0x1 SWAP1 PUSH2 0x26E6 JUMP JUMPDEST SWAP1 POP DUP2 DUP2 EQ PUSH2 0x1C1C JUMPI PUSH1 0x0 DUP7 PUSH1 0x0 ADD DUP3 DUP2 SLOAD DUP2 LT PUSH2 0x1BD7 JUMPI PUSH2 0x1BD7 PUSH2 0x257C JUMP JUMPDEST SWAP1 PUSH1 0x0 MSTORE PUSH1 0x20 PUSH1 0x0 KECCAK256 ADD SLOAD SWAP1 POP DUP1 DUP8 PUSH1 0x0 ADD DUP5 DUP2 SLOAD DUP2 LT PUSH2 0x1BFA JUMPI PUSH2 0x1BFA PUSH2 0x257C JUMP JUMPDEST PUSH1 0x0 SWAP2 DUP3 MSTORE PUSH1 0x20 DUP1 DUP4 KECCAK256 SWAP1 SWAP2 ADD SWAP3 SWAP1 SWAP3 SSTORE SWAP2 DUP3 MSTORE PUSH1 0x1 DUP9 ADD SWAP1 MSTORE PUSH1 0x40 SWAP1 KECCAK256 DUP4 SWAP1 SSTORE JUMPDEST DUP6 SLOAD DUP7 SWAP1 DUP1 PUSH2 0x1C2D JUMPI PUSH2 0x1C2D PUSH2 0x28AA JUMP JUMPDEST PUSH1 0x1 SWAP1 SUB DUP2 DUP2 SWAP1 PUSH1 0x0 MSTORE PUSH1 0x20 PUSH1 0x0 KECCAK256 ADD PUSH1 0x0 SWAP1 SSTORE SWAP1 SSTORE DUP6 PUSH1 0x1 ADD PUSH1 0x0 DUP7 DUP2 MSTORE PUSH1 0x20 ADD SWAP1 DUP2 MSTORE PUSH1 0x20 ADD PUSH1 0x0 KECCAK256 PUSH1 0x0 SWAP1 SSTORE PUSH1 0x1 SWAP4 POP POP POP POP PUSH2 0x609 JUMP JUMPDEST PUSH1 0x0 SWAP2 POP POP PUSH2 0x609 JUMP JUMPDEST PUSH1 0x20 DUP2 MSTORE DUP2 PUSH1 0x20 DUP3 ADD MSTORE DUP2 DUP4 PUSH1 0x40 DUP4 ADD CALLDATACOPY PUSH1 0x0 DUP2 DUP4 ADD PUSH1 0x40 SWAP1 DUP2 ADD SWAP2 SWAP1 SWAP2 MSTORE PUSH1 0x1F SWAP1 SWAP3 ADD PUSH1 0x1F NOT AND ADD ADD SWAP2 SWAP1 POP JUMP JUMPDEST PUSH1 0x0 PUSH1 0x20 DUP3 DUP5 SUB SLT ISZERO PUSH2 0x1CB3 JUMPI PUSH1 0x0 DUP1 REVERT JUMPDEST DUP2 CALLDATALOAD PUSH1 0x1 PUSH1 0x1 PUSH1 0xE0 SHL SUB NOT DUP2 AND DUP2 EQ PUSH2 0xF9E JUMPI PUSH1 0x0 DUP1 REVERT JUMPDEST DUP1 CALLDATALOAD PUSH1 0x1 PUSH1 0x1 PUSH1 0xA0 SHL SUB DUP2 AND DUP2 EQ PUSH2 0x1CE2 JUMPI PUSH1 0x0 DUP1 REVERT JUMPDEST SWAP2 SWAP1 POP JUMP JUMPDEST PUSH4 0x4E487B71 PUSH1 0xE0 SHL PUSH1 0x0 MSTORE PUSH1 0x41 PUSH1 0x4 MSTORE PUSH1 0x24 PUSH1 0x0 REVERT JUMPDEST PUSH1 0x40 MLOAD PUSH1 0x1F DUP3 ADD PUSH1 0x1F NOT AND DUP2 ADD PUSH8 0xFFFFFFFFFFFFFFFF DUP2 GT DUP3 DUP3 LT OR ISZERO PUSH2 0x1D26 JUMPI PUSH2 0x1D26 PUSH2 0x1CE7 JUMP JUMPDEST PUSH1 0x40 MSTORE SWAP2 SWAP1 POP JUMP JUMPDEST PUSH1 0x0 PUSH8 0xFFFFFFFFFFFFFFFF DUP3 GT ISZERO PUSH2 0x1D48 JUMPI PUSH2 0x1D48 PUSH2 0x1CE7 JUMP JUMPDEST POP PUSH1 0x1F ADD PUSH1 0x1F NOT AND PUSH1 0x20 ADD SWAP1 JUMP JUMPDEST PUSH1 0x0 DUP3 PUSH1 0x1F DUP4 ADD SLT PUSH2 0x1D67 JUMPI PUSH1 0x0 DUP1 REVERT JUMPDEST DUP2 CALLDATALOAD PUSH2 0x1D7A PUSH2 0x1D75 DUP3 PUSH2 0x1D2E JUMP JUMPDEST PUSH2 0x1CFD JUMP JUMPDEST DUP2 DUP2 MSTORE DUP5 PUSH1 0x20 DUP4 DUP7 ADD ADD GT ISZERO PUSH2 0x1D8F JUMPI PUSH1 0x0 DUP1 REVERT JUMPDEST DUP2 PUSH1 0x20 DUP6 ADD PUSH1 0x20 DUP4 ADD CALLDATACOPY PUSH1 0x0 SWAP2 DUP2 ADD PUSH1 0x20 ADD SWAP2 SWAP1 SWAP2 MSTORE SWAP4 SWAP3 POP POP POP JUMP JUMPDEST PUSH1 0x0 DUP1 PUSH1 0x0 PUSH1 0x60 DUP5 DUP7 SUB SLT ISZERO PUSH2 0x1DC1 JUMPI PUSH1 0x0 DUP1 REVERT JUMPDEST PUSH2 0x1DCA DUP5 PUSH2 0x1CCB JUMP JUMPDEST SWAP3 POP PUSH1 0x20 DUP5 ADD CALLDATALOAD SWAP2 POP PUSH1 0x40 DUP5 ADD CALLDATALOAD PUSH8 0xFFFFFFFFFFFFFFFF DUP2 GT ISZERO PUSH2 0x1DED JUMPI PUSH1 0x0 DUP1 REVERT JUMPDEST PUSH2 0x1DF9 DUP7 DUP3 DUP8 ADD PUSH2 0x1D56 JUMP JUMPDEST SWAP2 POP POP SWAP3 POP SWAP3 POP SWAP3 JUMP JUMPDEST PUSH1 0x0 PUSH8 0xFFFFFFFFFFFFFFFF DUP3 GT ISZERO PUSH2 0x1E1D JUMPI PUSH2 0x1E1D PUSH2 0x1CE7 JUMP JUMPDEST POP PUSH1 0x5 SHL PUSH1 0x20 ADD SWAP1 JUMP JUMPDEST PUSH1 0x0 DUP3 PUSH1 0x1F DUP4 ADD SLT PUSH2 0x1E38 JUMPI PUSH1 0x0 DUP1 REVERT JUMPDEST DUP2 CALLDATALOAD PUSH1 0x20 PUSH2 0x1E48 PUSH2 0x1D75 DUP4 PUSH2 0x1E03 JUMP JUMPDEST DUP3 DUP2 MSTORE PUSH1 0x5 SWAP3 SWAP1 SWAP3 SHL DUP5 ADD DUP2 ADD SWAP2 DUP2 DUP2 ADD SWAP1 DUP7 DUP5 GT ISZERO PUSH2 0x1E67 JUMPI PUSH1 0x0 DUP1 REVERT JUMPDEST DUP3 DUP7 ADD JUMPDEST DUP5 DUP2 LT ISZERO PUSH2 0x1E89 JUMPI PUSH2 0x1E7C DUP2 PUSH2 0x1CCB JUMP JUMPDEST DUP4 MSTORE SWAP2 DUP4 ADD SWAP2 DUP4 ADD PUSH2 0x1E6B JUMP JUMPDEST POP SWAP7 SWAP6 POP POP POP POP POP POP JUMP JUMPDEST PUSH1 0x0 DUP3 PUSH1 0x1F DUP4 ADD SLT PUSH2 0x1EA5 JUMPI PUSH1 0x0 DUP1 REVERT JUMPDEST DUP2 CALLDATALOAD PUSH1 0x20 PUSH2 0x1EB5 PUSH2 0x1D75 DUP4 PUSH2 0x1E03 JUMP JUMPDEST DUP3 DUP2 MSTORE PUSH1 0x5 SWAP3 SWAP1 SWAP3 SHL DUP5 ADD DUP2 ADD SWAP2 DUP2 DUP2 ADD SWAP1 DUP7 DUP5 GT ISZERO PUSH2 0x1ED4 JUMPI PUSH1 0x0 DUP1 REVERT JUMPDEST DUP3 DUP7 ADD JUMPDEST DUP5 DUP2 LT ISZERO PUSH2 0x1E89 JUMPI DUP1 CALLDATALOAD DUP4 MSTORE SWAP2 DUP4 ADD SWAP2 DUP4 ADD PUSH2 0x1ED8 JUMP JUMPDEST DUP1 CALLDATALOAD DUP1 ISZERO ISZERO DUP2 EQ PUSH2 0x1CE2 JUMPI PUSH1 0x0 DUP1 REVERT JUMPDEST PUSH1 0x0 DUP3 PUSH1 0x1F DUP4 ADD SLT PUSH2 0x1F10 JUMPI PUSH1 0x0 DUP1 REVERT JUMPDEST DUP2 CALLDATALOAD PUSH1 0x20 PUSH2 0x1F20 PUSH2 0x1D75 DUP4 PUSH2 0x1E03 JUMP JUMPDEST DUP3 DUP2 MSTORE PUSH1 0x5 SWAP3 SWAP1 SWAP3 SHL DUP5 ADD DUP2 ADD SWAP2 DUP2 DUP2 ADD SWAP1 DUP7 DUP5 GT ISZERO PUSH2 0x1F3F JUMPI PUSH1 0x0 DUP1 REVERT JUMPDEST DUP3 DUP7 ADD JUMPDEST DUP5 DUP2 LT ISZERO PUSH2 0x1E89 JUMPI PUSH2 0x1F54 DUP2 PUSH2 0x1EEF JUMP JUMPDEST DUP4 MSTORE SWAP2 DUP4 ADD SWAP2 DUP4 ADD PUSH2 0x1F43 JUMP JUMPDEST PUSH1 0x0 DUP3 PUSH1 0x1F DUP4 ADD SLT PUSH2 0x1F72 JUMPI PUSH1 0x0 DUP1 REVERT JUMPDEST DUP2 CALLDATALOAD PUSH1 0x20 PUSH2 0x1F82 PUSH2 0x1D75 DUP4 PUSH2 0x1E03 JUMP JUMPDEST DUP3 DUP2 MSTORE PUSH1 0x5 SWAP3 SWAP1 SWAP3 SHL DUP5 ADD DUP2 ADD SWAP2 DUP2 DUP2 ADD SWAP1 DUP7 DUP5 GT ISZERO PUSH2 0x1FA1 JUMPI PUSH1 0x0 DUP1 REVERT JUMPDEST DUP3 DUP7 ADD JUMPDEST DUP5 DUP2 LT ISZERO PUSH2 0x1E89 JUMPI DUP1 CALLDATALOAD PUSH8 0xFFFFFFFFFFFFFFFF DUP2 GT ISZERO PUSH2 0x1FC5 JUMPI PUSH1 0x0 DUP1 DUP2 REVERT JUMPDEST PUSH2 0x1FD3 DUP10 DUP7 DUP4 DUP12 ADD ADD PUSH2 0x1D56 JUMP JUMPDEST DUP5 MSTORE POP SWAP2 DUP4 ADD SWAP2 DUP4 ADD PUSH2 0x1FA5 JUMP JUMPDEST PUSH1 0x0 DUP1 PUSH1 0x0 DUP1 PUSH1 0x0 PUSH1 0xA0 DUP7 DUP9 SUB SLT ISZERO PUSH2 0x1FF9 JUMPI PUSH1 0x0 DUP1 REVERT JUMPDEST DUP6 CALLDATALOAD PUSH8 0xFFFFFFFFFFFFFFFF DUP1 DUP3 GT ISZERO PUSH2 0x2011 JUMPI PUSH1 0x0 DUP1 REVERT JUMPDEST PUSH2 0x201D DUP10 DUP4 DUP11 ADD PUSH2 0x1E27 JUMP JUMPDEST SWAP7 POP PUSH1 0x20 DUP9 ADD CALLDATALOAD SWAP2 POP DUP1 DUP3 GT ISZERO PUSH2 0x2033 JUMPI PUSH1 0x0 DUP1 REVERT JUMPDEST PUSH2 0x203F DUP10 DUP4 DUP11 ADD PUSH2 0x1E27 JUMP JUMPDEST SWAP6 POP PUSH1 0x40 DUP9 ADD CALLDATALOAD SWAP2 POP DUP1 DUP3 GT ISZERO PUSH2 0x2055 JUMPI PUSH1 0x0 DUP1 REVERT JUMPDEST PUSH2 0x2061 DUP10 DUP4 DUP11 ADD PUSH2 0x1E94 JUMP JUMPDEST SWAP5 POP PUSH1 0x60 DUP9 ADD CALLDATALOAD SWAP2 POP DUP1 DUP3 GT ISZERO PUSH2 0x2077 JUMPI PUSH1 0x0 DUP1 REVERT JUMPDEST PUSH2 0x2083 DUP10 DUP4 DUP11 ADD PUSH2 0x1EFF JUMP JUMPDEST SWAP4 POP PUSH1 0x80 DUP9 ADD CALLDATALOAD SWAP2 POP DUP1 DUP3 GT ISZERO PUSH2 0x2099 JUMPI PUSH1 0x0 DUP1 REVERT JUMPDEST POP PUSH2 0x20A6 DUP9 DUP3 DUP10 ADD PUSH2 0x1F61 JUMP JUMPDEST SWAP2 POP POP SWAP3 SWAP6 POP SWAP3 SWAP6 SWAP1 SWAP4 POP JUMP JUMPDEST PUSH1 0x0 DUP1 PUSH1 0x0 DUP1 PUSH1 0x80 DUP6 DUP8 SUB SLT ISZERO PUSH2 0x20C9 JUMPI PUSH1 0x0 DUP1 REVERT JUMPDEST PUSH2 0x20D2 DUP6 PUSH2 0x1CCB JUMP JUMPDEST SWAP4 POP PUSH2 0x20E0 PUSH1 0x20 DUP7 ADD PUSH2 0x1CCB JUMP JUMPDEST SWAP3 POP PUSH2 0x20EE PUSH1 0x40 DUP7 ADD PUSH2 0x1EEF JUMP JUMPDEST SWAP2 POP PUSH1 0x60 DUP6 ADD CALLDATALOAD PUSH8 0xFFFFFFFFFFFFFFFF DUP2 GT ISZERO PUSH2 0x210A JUMPI PUSH1 0x0 DUP1 REVERT JUMPDEST PUSH2 0x2116 DUP8 DUP3 DUP9 ADD PUSH2 0x1D56 JUMP JUMPDEST SWAP2 POP POP SWAP3 SWAP6 SWAP2 SWAP5 POP SWAP3 POP JUMP JUMPDEST PUSH1 0x0 PUSH1 0x20 DUP3 DUP5 SUB SLT ISZERO PUSH2 0x2134 JUMPI PUSH1 0x0 DUP1 REVERT JUMPDEST POP CALLDATALOAD SWAP2 SWAP1 POP JUMP JUMPDEST PUSH1 0x0 JUMPDEST DUP4 DUP2 LT ISZERO PUSH2 0x2156 JUMPI DUP2 DUP2 ADD MLOAD DUP4 DUP3 ADD MSTORE PUSH1 0x20 ADD PUSH2 0x213E JUMP JUMPDEST POP POP PUSH1 0x0 SWAP2 ADD MSTORE JUMP JUMPDEST PUSH1 0x0 DUP2 MLOAD DUP1 DUP5 MSTORE PUSH2 0x2177 DUP2 PUSH1 0x20 DUP7 ADD PUSH1 0x20 DUP7 ADD PUSH2 0x213B JUMP JUMPDEST PUSH1 0x1F ADD PUSH1 0x1F NOT AND SWAP3 SWAP1 SWAP3 ADD PUSH1 0x20 ADD SWAP3 SWAP2 POP POP JUMP JUMPDEST PUSH1 0x20 DUP2 MSTORE PUSH1 0x0 PUSH2 0xF9E PUSH1 0x20 DUP4 ADD DUP5 PUSH2 0x215F JUMP JUMPDEST PUSH1 0x0 DUP1 PUSH1 0x40 DUP4 DUP6 SUB SLT ISZERO PUSH2 0x21B1 JUMPI PUSH1 0x0 DUP1 REVERT JUMPDEST PUSH2 0x21BA DUP4 PUSH2 0x1CCB JUMP JUMPDEST SWAP2 POP PUSH2 0x21C8 PUSH1 0x20 DUP5 ADD PUSH2 0x1CCB JUMP JUMPDEST SWAP1 POP SWAP3 POP SWAP3 SWAP1 POP JUMP JUMPDEST PUSH1 0x0 DUP1 PUSH1 0x20 DUP4 DUP6 SUB SLT ISZERO PUSH2 0x21E4 JUMPI PUSH1 0x0 DUP1 REVERT JUMPDEST DUP3 CALLDATALOAD PUSH8 0xFFFFFFFFFFFFFFFF DUP1 DUP3 GT ISZERO PUSH2 0x21FC JUMPI PUSH1 0x0 DUP1 REVERT JUMPDEST DUP2 DUP6 ADD SWAP2 POP DUP6 PUSH1 0x1F DUP4 ADD SLT PUSH2 0x2210 JUMPI PUSH1 0x0 DUP1 REVERT JUMPDEST DUP2 CALLDATALOAD DUP2 DUP2 GT ISZERO PUSH2 0x221F JUMPI PUSH1 0x0 DUP1 REVERT JUMPDEST DUP7 PUSH1 0x20 DUP3 PUSH1 0x5 SHL DUP6 ADD ADD GT ISZERO PUSH2 0x2234 JUMPI PUSH1 0x0 DUP1 REVERT JUMPDEST PUSH1 0x20 SWAP3 SWAP1 SWAP3 ADD SWAP7 SWAP2 SWAP6 POP SWAP1 SWAP4 POP POP POP POP JUMP JUMPDEST PUSH1 0x0 PUSH1 0x20 DUP1 DUP4 ADD DUP2 DUP5 MSTORE DUP1 DUP6 MLOAD DUP1 DUP4 MSTORE PUSH1 0x40 DUP7 ADD SWAP2 POP PUSH1 0x40 DUP2 PUSH1 0x5 SHL DUP8 ADD ADD SWAP3 POP DUP4 DUP8 ADD PUSH1 0x0 JUMPDEST DUP3 DUP2 LT ISZERO PUSH2 0x229B JUMPI PUSH1 0x3F NOT DUP9 DUP7 SUB ADD DUP5 MSTORE PUSH2 0x2289 DUP6 DUP4 MLOAD PUSH2 0x215F JUMP JUMPDEST SWAP5 POP SWAP3 DUP6 ADD SWAP3 SWAP1 DUP6 ADD SWAP1 PUSH1 0x1 ADD PUSH2 0x226D JUMP JUMPDEST POP SWAP3 SWAP8 SWAP7 POP POP POP POP POP POP POP JUMP JUMPDEST PUSH1 0x0 PUSH1 0x20 DUP3 DUP5 SUB SLT ISZERO PUSH2 0x22BA JUMPI PUSH1 0x0 DUP1 REVERT JUMPDEST PUSH2 0xF9E DUP3 PUSH2 0x1CCB JUMP JUMPDEST PUSH1 0x0 DUP1 PUSH1 0x0 DUP1 PUSH1 0x80 DUP6 DUP8 SUB SLT ISZERO PUSH2 0x22D9 JUMPI PUSH1 0x0 DUP1 REVERT JUMPDEST PUSH2 0x22E2 DUP6 PUSH2 0x1CCB JUMP JUMPDEST SWAP4 POP PUSH1 0x20 DUP6 ADD CALLDATALOAD SWAP3 POP PUSH2 0x20EE PUSH1 0x40 DUP7 ADD PUSH2 0x1EEF JUMP JUMPDEST PUSH1 0x0 DUP1 PUSH1 0x0 DUP1 PUSH1 0x0 PUSH1 0xA0 DUP7 DUP9 SUB SLT ISZERO PUSH2 0x230F JUMPI PUSH1 0x0 DUP1 REVERT JUMPDEST PUSH2 0x2318 DUP7 PUSH2 0x1CCB JUMP JUMPDEST SWAP5 POP PUSH2 0x2326 PUSH1 0x20 DUP8 ADD PUSH2 0x1CCB JUMP JUMPDEST SWAP4 POP PUSH1 0x40 DUP7 ADD CALLDATALOAD SWAP3 POP PUSH2 0x233B PUSH1 0x60 DUP8 ADD PUSH2 0x1EEF JUMP JUMPDEST SWAP2 POP PUSH1 0x80 DUP7 ADD CALLDATALOAD PUSH8 0xFFFFFFFFFFFFFFFF DUP2 GT ISZERO PUSH2 0x2357 JUMPI PUSH1 0x0 DUP1 REVERT JUMPDEST PUSH2 0x20A6 DUP9 DUP3 DUP10 ADD PUSH2 0x1D56 JUMP JUMPDEST PUSH1 0x0 DUP1 PUSH1 0x0 DUP1 PUSH1 0x80 DUP6 DUP8 SUB SLT ISZERO PUSH2 0x2379 JUMPI PUSH1 0x0 DUP1 REVERT JUMPDEST PUSH2 0x2382 DUP6 PUSH2 0x1CCB JUMP JUMPDEST SWAP4 POP PUSH2 0x2390 PUSH1 0x20 DUP7 ADD PUSH2 0x1CCB JUMP JUMPDEST SWAP3 POP PUSH1 0x40 DUP6 ADD CALLDATALOAD SWAP2 POP PUSH1 0x60 DUP6 ADD CALLDATALOAD PUSH8 0xFFFFFFFFFFFFFFFF DUP2 GT ISZERO PUSH2 0x210A JUMPI PUSH1 0x0 DUP1 REVERT JUMPDEST PUSH1 0x0 DUP1 PUSH1 0x40 DUP4 DUP6 SUB SLT ISZERO PUSH2 0x23C6 JUMPI PUSH1 0x0 DUP1 REVERT JUMPDEST DUP3 CALLDATALOAD SWAP2 POP PUSH1 0x20 DUP4 ADD CALLDATALOAD PUSH8 0xFFFFFFFFFFFFFFFF DUP2 GT ISZERO PUSH2 0x23E4 JUMPI PUSH1 0x0 DUP1 REVERT JUMPDEST PUSH2 0x23F0 DUP6 DUP3 DUP7 ADD PUSH2 0x1D56 JUMP JUMPDEST SWAP2 POP POP SWAP3 POP SWAP3 SWAP1 POP JUMP JUMPDEST PUSH1 0x0 DUP1 PUSH1 0x40 DUP4 DUP6 SUB SLT ISZERO PUSH2 0x240D JUMPI PUSH1 0x0 DUP1 REVERT JUMPDEST DUP3 CALLDATALOAD PUSH8 0xFFFFFFFFFFFFFFFF DUP1 DUP3 GT ISZERO PUSH2 0x2425 JUMPI PUSH1 0x0 DUP1 REVERT JUMPDEST PUSH2 0x2431 DUP7 DUP4 DUP8 ADD PUSH2 0x1E94 JUMP JUMPDEST SWAP4 POP PUSH1 0x20 DUP6 ADD CALLDATALOAD SWAP2 POP DUP1 DUP3 GT ISZERO PUSH2 0x2447 JUMPI PUSH1 0x0 DUP1 REVERT JUMPDEST POP PUSH2 0x23F0 DUP6 DUP3 DUP7 ADD PUSH2 0x1F61 JUMP JUMPDEST PUSH1 0x20 DUP1 DUP3 MSTORE DUP3 MLOAD DUP3 DUP3 ADD DUP2 SWAP1 MSTORE PUSH1 0x0 SWAP2 SWAP1 DUP5 DUP3 ADD SWAP1 PUSH1 0x40 DUP6 ADD SWAP1 DUP5 JUMPDEST DUP2 DUP2 LT ISZERO PUSH2 0x2495 JUMPI DUP4 MLOAD PUSH1 0x1 PUSH1 0x1 PUSH1 0xA0 SHL SUB AND DUP4 MSTORE SWAP3 DUP5 ADD SWAP3 SWAP2 DUP5 ADD SWAP2 PUSH1 0x1 ADD PUSH2 0x2470 JUMP JUMPDEST POP SWAP1 SWAP7 SWAP6 POP POP POP POP POP POP JUMP JUMPDEST PUSH1 0x0 PUSH1 0x20 DUP3 DUP5 SUB SLT ISZERO PUSH2 0x24B3 JUMPI PUSH1 0x0 DUP1 REVERT JUMPDEST DUP2 CALLDATALOAD PUSH8 0xFFFFFFFFFFFFFFFF DUP2 GT ISZERO PUSH2 0x24CA JUMPI PUSH1 0x0 DUP1 REVERT JUMPDEST PUSH2 0x16A5 DUP5 DUP3 DUP6 ADD PUSH2 0x1E94 JUMP JUMPDEST DUP4 DUP6 DUP3 CALLDATACOPY PUSH1 0x60 SWAP3 SWAP1 SWAP3 SHL PUSH12 0xFFFFFFFFFFFFFFFFFFFFFFFF NOT AND SWAP2 SWAP1 SWAP3 ADD SWAP1 DUP2 MSTORE PUSH1 0x14 DUP2 ADD SWAP2 SWAP1 SWAP2 MSTORE PUSH1 0x34 ADD SWAP2 SWAP1 POP JUMP JUMPDEST PUSH1 0x0 DUP3 MLOAD PUSH2 0x2518 DUP2 DUP5 PUSH1 0x20 DUP8 ADD PUSH2 0x213B JUMP JUMPDEST SWAP2 SWAP1 SWAP2 ADD SWAP3 SWAP2 POP POP JUMP JUMPDEST PUSH4 0x4E487B71 PUSH1 0xE0 SHL PUSH1 0x0 MSTORE PUSH1 0x11 PUSH1 0x4 MSTORE PUSH1 0x24 PUSH1 0x0 REVERT JUMPDEST DUP1 DUP3 ADD DUP1 DUP3 GT ISZERO PUSH2 0x609 JUMPI PUSH2 0x609 PUSH2 0x2522 JUMP JUMPDEST PUSH1 0x1 PUSH1 0x1 PUSH1 0xA0 SHL SUB DUP5 AND DUP2 MSTORE DUP3 PUSH1 0x20 DUP3 ADD MSTORE PUSH1 0x60 PUSH1 0x40 DUP3 ADD MSTORE PUSH1 0x0 PUSH2 0x2573 PUSH1 0x60 DUP4 ADD DUP5 PUSH2 0x215F JUMP JUMPDEST SWAP6 SWAP5 POP POP POP POP POP JUMP JUMPDEST PUSH4 0x4E487B71 PUSH1 0xE0 SHL PUSH1 0x0 MSTORE PUSH1 0x32 PUSH1 0x4 MSTORE PUSH1 0x24 PUSH1 0x0 REVERT JUMPDEST PUSH1 0x1 PUSH1 0x1 PUSH1 0xA0 SHL SUB DUP5 AND DUP2 MSTORE PUSH1 0xFF DUP4 AND PUSH1 0x20 DUP3 ADD MSTORE PUSH1 0x60 PUSH1 0x40 DUP3 ADD MSTORE PUSH1 0x0 PUSH2 0x2573 PUSH1 0x60 DUP4 ADD DUP5 PUSH2 0x215F JUMP JUMPDEST PUSH1 0x0 DUP1 DUP4 CALLDATALOAD PUSH1 0x1E NOT DUP5 CALLDATASIZE SUB ADD DUP2 SLT PUSH2 0x25D4 JUMPI PUSH1 0x0 DUP1 REVERT JUMPDEST DUP4 ADD DUP1 CALLDATALOAD SWAP2 POP PUSH8 0xFFFFFFFFFFFFFFFF DUP3 GT ISZERO PUSH2 0x25EF JUMPI PUSH1 0x0 DUP1 REVERT JUMPDEST PUSH1 0x20 ADD SWAP2 POP CALLDATASIZE DUP2 SWAP1 SUB DUP3 SGT ISZERO PUSH2 0x2604 JUMPI PUSH1 0x0 DUP1 REVERT JUMPDEST SWAP3 POP SWAP3 SWAP1 POP JUMP JUMPDEST DUP2 DUP4 DUP3 CALLDATACOPY PUSH1 0x0 SWAP2 ADD SWAP1 DUP2 MSTORE SWAP2 SWAP1 POP JUMP JUMPDEST DUP1 MLOAD PUSH1 0x20 DUP3 ADD MLOAD PUSH12 0xFFFFFFFFFFFFFFFFFFFFFFFF NOT DUP1 DUP3 AND SWAP3 SWAP2 SWAP1 PUSH1 0x14 DUP4 LT ISZERO PUSH2 0x264F JUMPI DUP1 DUP2 DUP5 PUSH1 0x14 SUB PUSH1 0x3 SHL SHL DUP4 AND AND SWAP4 POP JUMPDEST POP POP POP SWAP2 SWAP1 POP JUMP JUMPDEST PUSH1 0x1 DUP2 DUP2 SHR SWAP1 DUP3 AND DUP1 PUSH2 0x266B JUMPI PUSH1 0x7F DUP3 AND SWAP2 POP JUMPDEST PUSH1 0x20 DUP3 LT DUP2 SUB PUSH2 0xE25 JUMPI PUSH4 0x4E487B71 PUSH1 0xE0 SHL PUSH1 0x0 MSTORE PUSH1 0x22 PUSH1 0x4 MSTORE PUSH1 0x24 PUSH1 0x0 REVERT JUMPDEST DUP4 DUP2 MSTORE DUP3 ISZERO ISZERO PUSH1 0x20 DUP3 ADD MSTORE PUSH1 0x60 PUSH1 0x40 DUP3 ADD MSTORE PUSH1 0x0 PUSH2 0x2573 PUSH1 0x60 DUP4 ADD DUP5 PUSH2 0x215F JUMP JUMPDEST PUSH1 0x0 PUSH1 0x1 PUSH1 0x1 PUSH1 0xA0 SHL SUB DUP1 DUP9 AND DUP4 MSTORE DUP1 DUP8 AND PUSH1 0x20 DUP5 ADD MSTORE DUP1 DUP7 AND PUSH1 0x40 DUP5 ADD MSTORE POP DUP4 PUSH1 0x60 DUP4 ADD MSTORE PUSH1 0xA0 PUSH1 0x80 DUP4 ADD MSTORE PUSH2 0x178E PUSH1 0xA0 DUP4 ADD DUP5 PUSH2 0x215F JUMP JUMPDEST DUP2 DUP2 SUB DUP2 DUP2 GT ISZERO PUSH2 0x609 JUMPI PUSH2 0x609 PUSH2 0x2522 JUMP JUMPDEST DUP1 MLOAD PUSH1 0x20 DUP1 DUP4 ADD MLOAD SWAP2 SWAP1 DUP2 LT ISZERO PUSH2 0xE25 JUMPI PUSH1 0x0 NOT PUSH1 0x20 SWAP2 SWAP1 SWAP2 SUB PUSH1 0x3 SHL SHL AND SWAP2 SWAP1 POP JUMP JUMPDEST DUP3 DUP2 MSTORE PUSH1 0x40 PUSH1 0x20 DUP3 ADD MSTORE PUSH1 0x0 PUSH2 0x16A5 PUSH1 0x40 DUP4 ADD DUP5 PUSH2 0x215F JUMP JUMPDEST PUSH1 0x0 PUSH1 0x20 DUP3 DUP5 SUB SLT ISZERO PUSH2 0x2748 JUMPI PUSH1 0x0 DUP1 REVERT JUMPDEST DUP2 MLOAD PUSH8 0xFFFFFFFFFFFFFFFF DUP2 GT ISZERO PUSH2 0x275F JUMPI PUSH1 0x0 DUP1 REVERT JUMPDEST DUP3 ADD PUSH1 0x1F DUP2 ADD DUP5 SGT PUSH2 0x2770 JUMPI PUSH1 0x0 DUP1 REVERT JUMPDEST DUP1 MLOAD PUSH2 0x277E PUSH2 0x1D75 DUP3 PUSH2 0x1D2E JUMP JUMPDEST DUP2 DUP2 MSTORE DUP6 PUSH1 0x20 DUP4 DUP6 ADD ADD GT ISZERO PUSH2 0x2793 JUMPI PUSH1 0x0 DUP1 REVERT JUMPDEST PUSH2 0x2573 DUP3 PUSH1 0x20 DUP4 ADD PUSH1 0x20 DUP7 ADD PUSH2 0x213B JUMP JUMPDEST PUSH1 0x1F DUP3 GT ISZERO PUSH2 0xD17 JUMPI PUSH1 0x0 DUP2 DUP2 MSTORE PUSH1 0x20 DUP2 KECCAK256 PUSH1 0x1F DUP6 ADD PUSH1 0x5 SHR DUP2 ADD PUSH1 0x20 DUP7 LT ISZERO PUSH2 0x27CB JUMPI POP DUP1 JUMPDEST PUSH1 0x1F DUP6 ADD PUSH1 0x5 SHR DUP3 ADD SWAP2 POP JUMPDEST DUP2 DUP2 LT ISZERO PUSH2 0x6FD JUMPI DUP3 DUP2 SSTORE PUSH1 0x1 ADD PUSH2 0x27D7 JUMP JUMPDEST DUP2 MLOAD PUSH8 0xFFFFFFFFFFFFFFFF DUP2 GT ISZERO PUSH2 0x2804 JUMPI PUSH2 0x2804 PUSH2 0x1CE7 JUMP JUMPDEST PUSH2 0x2818 DUP2 PUSH2 0x2812 DUP5 SLOAD PUSH2 0x2657 JUMP JUMPDEST DUP5 PUSH2 0x27A4 JUMP JUMPDEST PUSH1 0x20 DUP1 PUSH1 0x1F DUP4 GT PUSH1 0x1 DUP2 EQ PUSH2 0x284D JUMPI PUSH1 0x0 DUP5 ISZERO PUSH2 0x2835 JUMPI POP DUP6 DUP4 ADD MLOAD JUMPDEST PUSH1 0x0 NOT PUSH1 0x3 DUP7 SWAP1 SHL SHR NOT AND PUSH1 0x1 DUP6 SWAP1 SHL OR DUP6 SSTORE PUSH2 0x6FD JUMP JUMPDEST PUSH1 0x0 DUP6 DUP2 MSTORE PUSH1 0x20 DUP2 KECCAK256 PUSH1 0x1F NOT DUP7 AND SWAP2 JUMPDEST DUP3 DUP2 LT ISZERO PUSH2 0x287C JUMPI DUP9 DUP7 ADD MLOAD DUP3 SSTORE SWAP5 DUP5 ADD SWAP5 PUSH1 0x1 SWAP1 SWAP2 ADD SWAP1 DUP5 ADD PUSH2 0x285D JUMP JUMPDEST POP DUP6 DUP3 LT ISZERO PUSH2 0x289A JUMPI DUP8 DUP6 ADD MLOAD PUSH1 0x0 NOT PUSH1 0x3 DUP9 SWAP1 SHL PUSH1 0xF8 AND SHR NOT AND DUP2 SSTORE JUMPDEST POP POP POP POP POP PUSH1 0x1 SWAP1 DUP2 SHL ADD SWAP1 SSTORE POP JUMP JUMPDEST PUSH4 0x4E487B71 PUSH1 0xE0 SHL PUSH1 0x0 MSTORE PUSH1 0x31 PUSH1 0x4 MSTORE PUSH1 0x24 PUSH1 0x0 REVERT INVALID LOG2 PUSH5 0x6970667358 0x22 SLT KECCAK256 0xA7 PUSH18 0x2F389F4BF008B18EBED579B69ADCB0538576 0xB4 GASPRICE 0x4A 0xC3 SWAP1 0xC1 0xB0 0xE1 0xDD STOP 0x2C PUSH23 0x64736F6C63430008130033000000000000000000000000 "},"methodIdentifiers":{"authorizeOperator(address,uint256,bytes)":"b49506fd","authorizedAmountFor(address,address)":"65aeaa95","balanceOf(address)":"70a08231","batchCalls(bytes[])":"6963d438","decimals()":"313ce567","decreaseAllowance(address,address,uint256,bytes)":"78381670","getData(bytes32)":"54f6127f","getDataBatch(bytes32[])":"dedff9c6","getOperatorsOf(address)":"d72fc29a","increaseAllowance(address,uint256,bytes)":"2bc1da82","mint(address,uint256,bool,bytes)":"7580d920","owner()":"8da5cb5b","renounceOwnership()":"715018a6","revokeOperator(address,address,bool,bytes)":"30d0dc37","setData(bytes32,bytes)":"7f23690c","setDataBatch(bytes32[],bytes[])":"97902421","supportsInterface(bytes4)":"01ffc9a7","totalSupply()":"18160ddd","transfer(address,address,uint256,bool,bytes)":"760d9bba","transferBatch(address[],address[],uint256[],bool[],bytes[])":"2d7667c9","transferOwnership(address)":"f2fde38b"}}}}}