{
  "_format": "hh-sol-artifact-1",
  "contractName": "LSP7Mintable",
  "sourceName": "@lukso/lsp7-contracts/contracts/presets/LSP7Mintable.sol",
  "abi": [
    {
      "inputs": [
        {
          "internalType": "string",
          "name": "name_",
          "type": "string"
        },
        {
          "internalType": "string",
          "name": "symbol_",
          "type": "string"
        },
        {
          "internalType": "address",
          "name": "newOwner_",
          "type": "address"
        },
        {
          "internalType": "uint256",
          "name": "lsp4TokenType_",
          "type": "uint256"
        },
        {
          "internalType": "bool",
          "name": "isNonDivisible_",
          "type": "bool"
        }
      ],
      "stateMutability": "nonpayable",
      "type": "constructor"
    },
    {
      "inputs": [],
      "name": "ERC725Y_DataKeysValuesEmptyArray",
      "type": "error"
    },
    {
      "inputs": [],
      "name": "ERC725Y_DataKeysValuesLengthMismatch",
      "type": "error"
    },
    {
      "inputs": [],
      "name": "ERC725Y_MsgValueDisallowed",
      "type": "error"
    },
    {
      "inputs": [
        {
          "internalType": "bytes",
          "name": "storedData",
          "type": "bytes"
        }
      ],
      "name": "InvalidExtensionAddress",
      "type": "error"
    },
    {
      "inputs": [
        {
          "internalType": "bytes",
          "name": "data",
          "type": "bytes"
        }
      ],
      "name": "InvalidFunctionSelector",
      "type": "error"
    },
    {
      "inputs": [],
      "name": "LSP4TokenNameNotEditable",
      "type": "error"
    },
    {
      "inputs": [],
      "name": "LSP4TokenSymbolNotEditable",
      "type": "error"
    },
    {
      "inputs": [],
      "name": "LSP4TokenTypeNotEditable",
      "type": "error"
    },
    {
      "inputs": [
        {
          "internalType": "address",
          "name": "tokenOwner",
          "type": "address"
        },
        {
          "internalType": "uint256",
          "name": "authorizedAmount",
          "type": "uint256"
        },
        {
          "internalType": "address",
          "name": "operator",
          "type": "address"
        },
        {
          "internalType": "uint256",
          "name": "amount",
          "type": "uint256"
        }
      ],
      "name": "LSP7AmountExceedsAuthorizedAmount",
      "type": "error"
    },
    {
      "inputs": [
        {
          "internalType": "uint256",
          "name": "balance",
          "type": "uint256"
        },
        {
          "internalType": "address",
          "name": "tokenOwner",
          "type": "address"
        },
        {
          "internalType": "uint256",
          "name": "amount",
          "type": "uint256"
        }
      ],
      "name": "LSP7AmountExceedsBalance",
      "type": "error"
    },
    {
      "inputs": [
        {
          "internalType": "uint256",
          "name": "callIndex",
          "type": "uint256"
        }
      ],
      "name": "LSP7BatchCallFailed",
      "type": "error"
    },
    {
      "inputs": [],
      "name": "LSP7CannotSendWithAddressZero",
      "type": "error"
    },
    {
      "inputs": [],
      "name": "LSP7CannotUseAddressZeroAsOperator",
      "type": "error"
    },
    {
      "inputs": [
        {
          "internalType": "address",
          "name": "caller",
          "type": "address"
        },
        {
          "internalType": "address",
          "name": "tokenOwner",
          "type": "address"
        },
        {
          "internalType": "address",
          "name": "operator",
          "type": "address"
        }
      ],
      "name": "LSP7DecreaseAllowanceNotAuthorized",
      "type": "error"
    },
    {
      "inputs": [],
      "name": "LSP7DecreasedAllowanceBelowZero",
      "type": "error"
    },
    {
      "inputs": [],
      "name": "LSP7InvalidTransferBatch",
      "type": "error"
    },
    {
      "inputs": [
        {
          "internalType": "address",
          "name": "tokenReceiver",
          "type": "address"
        }
      ],
      "name": "LSP7NotifyTokenReceiverContractMissingLSP1Interface",
      "type": "error"
    },
    {
      "inputs": [
        {
          "internalType": "address",
          "name": "tokenReceiver",
          "type": "address"
        }
      ],
      "name": "LSP7NotifyTokenReceiverIsEOA",
      "type": "error"
    },
    {
      "inputs": [
        {
          "internalType": "address",
          "name": "caller",
          "type": "address"
        },
        {
          "internalType": "address",
          "name": "tokenOwner",
          "type": "address"
        },
        {
          "internalType": "address",
          "name": "operator",
          "type": "address"
        }
      ],
      "name": "LSP7RevokeOperatorNotAuthorized",
      "type": "error"
    },
    {
      "inputs": [],
      "name": "LSP7TokenContractCannotHoldValue",
      "type": "error"
    },
    {
      "inputs": [],
      "name": "LSP7TokenOwnerCannotBeOperator",
      "type": "error"
    },
    {
      "inputs": [
        {
          "internalType": "bytes4",
          "name": "functionSelector",
          "type": "bytes4"
        }
      ],
      "name": "NoExtensionFoundForFunctionSelector",
      "type": "error"
    },
    {
      "inputs": [
        {
          "internalType": "address",
          "name": "operator",
          "type": "address"
        }
      ],
      "name": "OperatorAllowanceCannotBeIncreasedFromZero",
      "type": "error"
    },
    {
      "inputs": [
        {
          "internalType": "address",
          "name": "callerAddress",
          "type": "address"
        }
      ],
      "name": "OwnableCallerNotTheOwner",
      "type": "error"
    },
    {
      "inputs": [],
      "name": "OwnableCannotSetZeroAddressAsOwner",
      "type": "error"
    },
    {
      "anonymous": false,
      "inputs": [
        {
          "indexed": true,
          "internalType": "bytes32",
          "name": "dataKey",
          "type": "bytes32"
        },
        {
          "indexed": false,
          "internalType": "bytes",
          "name": "dataValue",
          "type": "bytes"
        }
      ],
      "name": "DataChanged",
      "type": "event"
    },
    {
      "anonymous": false,
      "inputs": [
        {
          "indexed": true,
          "internalType": "address",
          "name": "operator",
          "type": "address"
        },
        {
          "indexed": true,
          "internalType": "address",
          "name": "tokenOwner",
          "type": "address"
        },
        {
          "indexed": true,
          "internalType": "uint256",
          "name": "amount",
          "type": "uint256"
        },
        {
          "indexed": false,
          "internalType": "bytes",
          "name": "operatorNotificationData",
          "type": "bytes"
        }
      ],
      "name": "OperatorAuthorizationChanged",
      "type": "event"
    },
    {
      "anonymous": false,
      "inputs": [
        {
          "indexed": true,
          "internalType": "address",
          "name": "operator",
          "type": "address"
        },
        {
          "indexed": true,
          "internalType": "address",
          "name": "tokenOwner",
          "type": "address"
        },
        {
          "indexed": true,
          "internalType": "bool",
          "name": "notified",
          "type": "bool"
        },
        {
          "indexed": false,
          "internalType": "bytes",
          "name": "operatorNotificationData",
          "type": "bytes"
        }
      ],
      "name": "OperatorRevoked",
      "type": "event"
    },
    {
      "anonymous": false,
      "inputs": [
        {
          "indexed": true,
          "internalType": "address",
          "name": "previousOwner",
          "type": "address"
        },
        {
          "indexed": true,
          "internalType": "address",
          "name": "newOwner",
          "type": "address"
        }
      ],
      "name": "OwnershipTransferred",
      "type": "event"
    },
    {
      "anonymous": false,
      "inputs": [
        {
          "indexed": true,
          "internalType": "address",
          "name": "operator",
          "type": "address"
        },
        {
          "indexed": true,
          "internalType": "address",
          "name": "from",
          "type": "address"
        },
        {
          "indexed": true,
          "internalType": "address",
          "name": "to",
          "type": "address"
        },
        {
          "indexed": false,
          "internalType": "uint256",
          "name": "amount",
          "type": "uint256"
        },
        {
          "indexed": false,
          "internalType": "bool",
          "name": "force",
          "type": "bool"
        },
        {
          "indexed": false,
          "internalType": "bytes",
          "name": "data",
          "type": "bytes"
        }
      ],
      "name": "Transfer",
      "type": "event"
    },
    {
      "stateMutability": "payable",
      "type": "fallback"
    },
    {
      "inputs": [
        {
          "internalType": "address",
          "name": "operator",
          "type": "address"
        },
        {
          "internalType": "uint256",
          "name": "amount",
          "type": "uint256"
        },
        {
          "internalType": "bytes",
          "name": "operatorNotificationData",
          "type": "bytes"
        }
      ],
      "name": "authorizeOperator",
      "outputs": [],
      "stateMutability": "nonpayable",
      "type": "function"
    },
    {
      "inputs": [
        {
          "internalType": "address",
          "name": "operator",
          "type": "address"
        },
        {
          "internalType": "address",
          "name": "tokenOwner",
          "type": "address"
        }
      ],
      "name": "authorizedAmountFor",
      "outputs": [
        {
          "internalType": "uint256",
          "name": "",
          "type": "uint256"
        }
      ],
      "stateMutability": "view",
      "type": "function"
    },
    {
      "inputs": [
        {
          "internalType": "address",
          "name": "tokenOwner",
          "type": "address"
        }
      ],
      "name": "balanceOf",
      "outputs": [
        {
          "internalType": "uint256",
          "name": "",
          "type": "uint256"
        }
      ],
      "stateMutability": "view",
      "type": "function"
    },
    {
      "inputs": [
        {
          "internalType": "bytes[]",
          "name": "data",
          "type": "bytes[]"
        }
      ],
      "name": "batchCalls",
      "outputs": [
        {
          "internalType": "bytes[]",
          "name": "results",
          "type": "bytes[]"
        }
      ],
      "stateMutability": "nonpayable",
      "type": "function"
    },
    {
      "inputs": [],
      "name": "decimals",
      "outputs": [
        {
          "internalType": "uint8",
          "name": "",
          "type": "uint8"
        }
      ],
      "stateMutability": "view",
      "type": "function"
    },
    {
      "inputs": [
        {
          "internalType": "address",
          "name": "operator",
          "type": "address"
        },
        {
          "internalType": "address",
          "name": "tokenOwner",
          "type": "address"
        },
        {
          "internalType": "uint256",
          "name": "subtractedAmount",
          "type": "uint256"
        },
        {
          "internalType": "bytes",
          "name": "operatorNotificationData",
          "type": "bytes"
        }
      ],
      "name": "decreaseAllowance",
      "outputs": [],
      "stateMutability": "nonpayable",
      "type": "function"
    },
    {
      "inputs": [
        {
          "internalType": "bytes32",
          "name": "dataKey",
          "type": "bytes32"
        }
      ],
      "name": "getData",
      "outputs": [
        {
          "internalType": "bytes",
          "name": "dataValue",
          "type": "bytes"
        }
      ],
      "stateMutability": "view",
      "type": "function"
    },
    {
      "inputs": [
        {
          "internalType": "bytes32[]",
          "name": "dataKeys",
          "type": "bytes32[]"
        }
      ],
      "name": "getDataBatch",
      "outputs": [
        {
          "internalType": "bytes[]",
          "name": "dataValues",
          "type": "bytes[]"
        }
      ],
      "stateMutability": "view",
      "type": "function"
    },
    {
      "inputs": [
        {
          "internalType": "address",
          "name": "tokenOwner",
          "type": "address"
        }
      ],
      "name": "getOperatorsOf",
      "outputs": [
        {
          "internalType": "address[]",
          "name": "",
          "type": "address[]"
        }
      ],
      "stateMutability": "view",
      "type": "function"
    },
    {
      "inputs": [
        {
          "internalType": "address",
          "name": "operator",
          "type": "address"
        },
        {
          "internalType": "uint256",
          "name": "addedAmount",
          "type": "uint256"
        },
        {
          "internalType": "bytes",
          "name": "operatorNotificationData",
          "type": "bytes"
        }
      ],
      "name": "increaseAllowance",
      "outputs": [],
      "stateMutability": "nonpayable",
      "type": "function"
    },
    {
      "inputs": [
        {
          "internalType": "address",
          "name": "to",
          "type": "address"
        },
        {
          "internalType": "uint256",
          "name": "amount",
          "type": "uint256"
        },
        {
          "internalType": "bool",
          "name": "force",
          "type": "bool"
        },
        {
          "internalType": "bytes",
          "name": "data",
          "type": "bytes"
        }
      ],
      "name": "mint",
      "outputs": [],
      "stateMutability": "nonpayable",
      "type": "function"
    },
    {
      "inputs": [],
      "name": "owner",
      "outputs": [
        {
          "internalType": "address",
          "name": "",
          "type": "address"
        }
      ],
      "stateMutability": "view",
      "type": "function"
    },
    {
      "inputs": [],
      "name": "renounceOwnership",
      "outputs": [],
      "stateMutability": "nonpayable",
      "type": "function"
    },
    {
      "inputs": [
        {
          "internalType": "address",
          "name": "operator",
          "type": "address"
        },
        {
          "internalType": "address",
          "name": "tokenOwner",
          "type": "address"
        },
        {
          "internalType": "bool",
          "name": "notify",
          "type": "bool"
        },
        {
          "internalType": "bytes",
          "name": "operatorNotificationData",
          "type": "bytes"
        }
      ],
      "name": "revokeOperator",
      "outputs": [],
      "stateMutability": "nonpayable",
      "type": "function"
    },
    {
      "inputs": [
        {
          "internalType": "bytes32",
          "name": "dataKey",
          "type": "bytes32"
        },
        {
          "internalType": "bytes",
          "name": "dataValue",
          "type": "bytes"
        }
      ],
      "name": "setData",
      "outputs": [],
      "stateMutability": "payable",
      "type": "function"
    },
    {
      "inputs": [
        {
          "internalType": "bytes32[]",
          "name": "dataKeys",
          "type": "bytes32[]"
        },
        {
          "internalType": "bytes[]",
          "name": "dataValues",
          "type": "bytes[]"
        }
      ],
      "name": "setDataBatch",
      "outputs": [],
      "stateMutability": "payable",
      "type": "function"
    },
    {
      "inputs": [
        {
          "internalType": "bytes4",
          "name": "interfaceId",
          "type": "bytes4"
        }
      ],
      "name": "supportsInterface",
      "outputs": [
        {
          "internalType": "bool",
          "name": "",
          "type": "bool"
        }
      ],
      "stateMutability": "view",
      "type": "function"
    },
    {
      "inputs": [],
      "name": "totalSupply",
      "outputs": [
        {
          "internalType": "uint256",
          "name": "",
          "type": "uint256"
        }
      ],
      "stateMutability": "view",
      "type": "function"
    },
    {
      "inputs": [
        {
          "internalType": "address",
          "name": "from",
          "type": "address"
        },
        {
          "internalType": "address",
          "name": "to",
          "type": "address"
        },
        {
          "internalType": "uint256",
          "name": "amount",
          "type": "uint256"
        },
        {
          "internalType": "bool",
          "name": "force",
          "type": "bool"
        },
        {
          "internalType": "bytes",
          "name": "data",
          "type": "bytes"
        }
      ],
      "name": "transfer",
      "outputs": [],
      "stateMutability": "nonpayable",
      "type": "function"
    },
    {
      "inputs": [
        {
          "internalType": "address[]",
          "name": "from",
          "type": "address[]"
        },
        {
          "internalType": "address[]",
          "name": "to",
          "type": "address[]"
        },
        {
          "internalType": "uint256[]",
          "name": "amount",
          "type": "uint256[]"
        },
        {
          "internalType": "bool[]",
          "name": "force",
          "type": "bool[]"
        },
        {
          "internalType": "bytes[]",
          "name": "data",
          "type": "bytes[]"
        }
      ],
      "name": "transferBatch",
      "outputs": [],
      "stateMutability": "nonpayable",
      "type": "function"
    },
    {
      "inputs": [
        {
          "internalType": "address",
          "name": "newOwner",
          "type": "address"
        }
      ],
      "name": "transferOwnership",
      "outputs": [],
      "stateMutability": "nonpayable",
      "type": "function"
    },
    {
      "stateMutability": "payable",
      "type": "receive"
    }
  ],
  "bytecode": "0x60806040523480156200001157600080fd5b5060405162002e5c38038062002e5c833981016040819052620000349162000315565b848484848484848484816001600160a01b03811662000066576040516306b620db60e21b815260040160405180910390fd5b620000718162000181565b506040805180820190915260048152632936598960e21b6020820152620000ba907feafec4d89fa9619884b60000a4d96624a38f7ac2d8d9a604ecf07c12c77e480c90620001ef565b620000e67fdeba1e292f8ba88238e10ab3c7f88bd4be4fac56cad5194b6ecceaf653468af185620001ef565b620001127f2f0a68ab07768e01943a599e73362a0e17a63a72e94dd2e384d2c1d4db93275684620001ef565b60408051602081018390526200015b917fe0261fa95db2eb3b5439bd033cda66d56b96f92f243a8228fd87550ed7bdfdb3910160408051601f19818403018152919052620001ef565b50506002805460ff19169315159390931790925550620005569950505050505050505050565b6000546001600160a01b03828116911614620001ec57600080546040516001600160a01b03808516939216917f8be0079c531659141344cd1fd0a4f28419497f9722a3daafe3b4186f6b6457e091a3600080546001600160a01b0319166001600160a01b0383161790555b50565b600082815260016020526040902062000209828262000455565b50817fece574603820d07bc9b91f2a932baadf4628aabcb8afba49776529c14a6104b2826040516200023c919062000521565b60405180910390a25050565b634e487b7160e01b600052604160045260246000fd5b60005b838110156200027b57818101518382015260200162000261565b50506000910152565b600082601f8301126200029657600080fd5b81516001600160401b0380821115620002b357620002b362000248565b604051601f8301601f19908116603f01168101908282118183101715620002de57620002de62000248565b81604052838152866020858801011115620002f857600080fd5b6200030b8460208301602089016200025e565b9695505050505050565b600080600080600060a086880312156200032e57600080fd5b85516001600160401b03808211156200034657600080fd5b6200035489838a0162000284565b965060208801519150808211156200036b57600080fd5b506200037a8882890162000284565b604088015190955090506001600160a01b03811681146200039a57600080fd5b6060870151608088015191945092508015158114620003b857600080fd5b809150509295509295909350565b600181811c90821680620003db57607f821691505b602082108103620003fc57634e487b7160e01b600052602260045260246000fd5b50919050565b601f8211156200045057600081815260208120601f850160051c810160208610156200042b5750805b601f850160051c820191505b818110156200044c5782815560010162000437565b5050505b505050565b81516001600160401b0381111562000471576200047162000248565b6200048981620004828454620003c6565b8462000402565b602080601f831160018114620004c15760008415620004a85750858301515b600019600386901b1c1916600185901b1785556200044c565b600085815260208120601f198616915b82811015620004f257888601518255948401946001909101908401620004d1565b5085821015620005115787850151600019600388901b60f8161c191681555b5050505050600190811b01905550565b6020815260008251806020840152620005428160408501602087016200025e565b601f01601f19169190910160400192915050565b6128f680620005666000396000f3fe60806040526004361061016e5760003560e01c8063715018a6116100cb5780638da5cb5b1161007f578063d72fc29a11610059578063d72fc29a14610493578063dedff9c6146104c0578063f2fde38b146104e0576101e2565b80638da5cb5b146104385780639790242114610460578063b49506fd14610473576101e2565b8063760d9bba116100b0578063760d9bba146103e557806378381670146104055780637f23690c14610425576101e2565b8063715018a6146103b05780637580d920146103c5576101e2565b8063313ce5671161012257806365aeaa951161010757806365aeaa951461032d5780636963d4381461034d57806370a082311461037a576101e2565b8063313ce567146102d957806354f6127f14610300576101e2565b80632bc1da82116101535780632bc1da82146102775780632d7667c91461029957806330d0dc37146102b9576101e2565b806301ffc9a71461022357806318160ddd14610258576101e2565b366101e257346000036101b05760405163e5099ee360e01b81526004016101a79060208082526004908201526000604082015260600190565b60405180910390fd5b6040517f388f5adc00000000000000000000000000000000000000000000000000000000815260040160405180910390fd5b6000366060600482101561020d57828260405163e5099ee360e01b81526004016101a7929190611c72565b6102178383610500565b80519350602001915050f35b34801561022f57600080fd5b5061024361023e366004611ca1565b61060f565b60405190151581526020015b60405180910390f35b34801561026457600080fd5b506003545b60405190815260200161024f565b34801561028357600080fd5b50610297610292366004611dac565b61065c565b005b3480156102a557600080fd5b506102976102b4366004611fe1565b610705565b3480156102c557600080fd5b506102976102d43660046120b3565b61080d565b3480156102e557600080fd5b506102ee6108ce565b60405160ff909116815260200161024f565b34801561030c57600080fd5b5061032061031b366004612122565b6108e7565b60405161024f919061218b565b34801561033957600080fd5b5061026961034836600461219e565b6108f2565b34801561035957600080fd5b5061036d6103683660046121d1565b610958565b60405161024f9190612246565b34801561038657600080fd5b506102696103953660046122a8565b6001600160a01b031660009081526004602052604090205490565b3480156103bc57600080fd5b50610297610aa8565b3480156103d157600080fd5b506102976103e03660046122c3565b610abc565b3480156103f157600080fd5b506102976104003660046122f7565b610ad0565b34801561041157600080fd5b50610297610420366004612363565b610af8565b6102976104333660046123b3565b610bf5565b34801561044457600080fd5b506000546040516001600160a01b03909116815260200161024f565b61029761046e3660046123fa565b610c2a565b34801561047f57600080fd5b5061029761048e366004611dac565b610d1c565b34801561049f57600080fd5b506104b36104ae3660046122a8565b610d5c565b60405161024f9190612454565b3480156104cc57600080fd5b5061036d6104db3660046124a1565b610d80565b3480156104ec57600080fd5b506102976104fb3660046122a8565b610e2b565b606060006105196000356001600160e01b031916610e7f565b5090506001600160a01b03811661056a576040517fbb370b2b0000000000000000000000000000000000000000000000000000000081526001600160e01b03196000351660048201526024016101a7565b600080826001600160a01b0316348787333460405160200161058f94939291906124d6565b60408051601f19818403018152908290526105a991612506565b60006040518083038185875af1925050503d80600081146105e6576040519150601f19603f3d011682016040523d82523d6000602084013e6105eb565b606091505b50915091508115610600579250610609915050565b80518060208301fd5b92915050565b60006001600160e01b031982167fc52d600800000000000000000000000000000000000000000000000000000000148061064d575061064d82610f29565b80610609575061060982610f67565b600061066884336108f2565b9050806000036106af576040517fcba6e9770000000000000000000000000000000000000000000000000000000081526001600160a01b03851660048201526024016101a7565b60006106bb8483612538565b90506106cb338683600187610fa5565b60003382856040516020016106e29392919061254b565b60405160208183030381529060405290506106fd868261114a565b505050505050565b8451845181141580610718575083518114155b80610724575082518114155b80610730575081518114155b15610767576040517f263eee8d00000000000000000000000000000000000000000000000000000000815260040160405180910390fd5b60005b81811015610804576107fc8782815181106107875761078761257c565b60200260200101518783815181106107a1576107a161257c565b60200260200101518784815181106107bb576107bb61257c565b60200260200101518785815181106107d5576107d561257c565b60200260200101518786815181106107ef576107ef61257c565b6020026020010151610ad0565b60010161076a565b50505050505050565b336001600160a01b0384161480159061082f5750336001600160a01b03851614155b1561087f576040517f1a525b320000000000000000000000000000000000000000000000000000000081523360048201526001600160a01b038085166024830152851660448201526064016101a7565b61088d838560008585610fa5565b81156108c8576000836000836040516020016108ab93929190612592565b60405160208183030381529060405290506108c6858261114a565b505b50505050565b60025460009060ff166108e15750601290565b50600090565b606061060982611175565b6000826001600160a01b0316826001600160a01b03160361092c57506001600160a01b038116600090815260046020526040902054610609565b506001600160a01b03808216600090815260066020908152604080832093861683529290522054610609565b60608167ffffffffffffffff81111561097357610973611ce7565b6040519080825280602002602001820160405280156109a657816020015b60608152602001906001900390816109915790505b50905060005b82811015610aa157600080308686858181106109ca576109ca61257c565b90506020028101906109dc91906125bd565b6040516109ea92919061260b565b600060405180830381855af49150503d8060008114610a25576040519150601f19603f3d011682016040523d82523d6000602084013e610a2a565b606091505b509150915081610a7957805115610a445780518082602001fd5b6040517fb774c284000000000000000000000000000000000000000000000000000000008152600481018490526024016101a7565b80848481518110610a8c57610a8c61257c565b602090810291909101015250506001016109ac565b5092915050565b610ab0611217565b610aba600061126c565b565b610ac4611217565b6108c8848484846112f2565b336001600160a01b03861614610aeb57610aeb3386856113e1565b6108c68585858585611488565b336001600160a01b03841614801590610b1a5750336001600160a01b03851614155b15610b6a576040517f98ce29450000000000000000000000000000000000000000000000000000000081523360048201526001600160a01b038085166024830152851660448201526064016101a7565b6000610b7685856108f2565b905082811015610bb2576040517f0ef76c3500000000000000000000000000000000000000000000000000000000815260040160405180910390fd5b828103610bc3858783600187610fa5565b6000858285604051602001610bda9392919061254b565b6040516020818303038152906040529050610804878261114a565b610bfd611217565b3415610c1c5760405163f36ba73760e01b815260040160405180910390fd5b610c268282611625565b5050565b610c32611217565b3415610c515760405163f36ba73760e01b815260040160405180910390fd5b8051825114610c8c576040517f3bcc897900000000000000000000000000000000000000000000000000000000815260040160405180910390fd5b8151600003610cc7576040517f97da5f9500000000000000000000000000000000000000000000000000000000815260040160405180910390fd5b60005b8251811015610d1757610d0f838281518110610ce857610ce861257c565b6020026020010151838381518110610d0257610d0261257c565b6020026020010151611625565b600101610cca565b505050565b610d2a338484600185610fa5565b6000338383604051602001610d419392919061254b565b60405160208183030381529060405290506108c8848261114a565b6001600160a01b03811660009081526005602052604090206060906106099061162f565b6060815167ffffffffffffffff811115610d9c57610d9c611ce7565b604051908082528060200260200182016040528015610dcf57816020015b6060815260200190600190039081610dba5790505b50905060005b8251811015610e2557610e00838281518110610df357610df361257c565b6020026020010151611175565b828281518110610e1257610e1261257c565b6020908102919091010152600101610dd5565b50919050565b610e33611217565b6001600160a01b038116610e73576040517f1ad8836c00000000000000000000000000000000000000000000000000000000815260040160405180910390fd5b610e7c8161126c565b50565b60008080610eb77fcee78b4094da86011096000000000000000000000000000000000000000000006001600160e01b0319861661163c565b90506000610ec482611175565b90508051601414158015610ed85750805115155b15610f1157806040517f42bfe79f0000000000000000000000000000000000000000000000000000000081526004016101a7919061218b565b610f1a8161261b565b60601c95600195509350505050565b60006001600160e01b031982167fa918fa6b0000000000000000000000000000000000000000000000000000000014806106095750610609826116ad565b600080610f7a6301ffc9a760e01b610e7f565b5090506001600160a01b038116610f945750600092915050565b610f9e81846116fb565b9392505050565b6001600160a01b038416610fe5576040517f6355e76600000000000000000000000000000000000000000000000000000000815260040160405180910390fd5b846001600160a01b0316846001600160a01b031603611030576040517fdab7504700000000000000000000000000000000000000000000000000000000815260040160405180910390fd5b6001600160a01b03808616600090815260066020908152604080832093881683529290522083905582156110d2576001600160a01b03851660009081526005602052604090206110809085611799565b5082856001600160a01b0316856001600160a01b03167ff772a43bfdf4729b196e3fb54a818b91a2ca6c49d10b2e16278752f9f515c25d846040516110c5919061218b565b60405180910390a46108c6565b6001600160a01b03851660009081526005602052604090206110f490856117ae565b50811515856001600160a01b0316856001600160a01b03167f0ebf5762d8855cbe012d2ca42fb33a81175e17c8a8751f8859931ba453bd41678460405161113b919061218b565b60405180910390a45050505050565b610c26827f386072cc5a58e61263b434c722725f21031cd06e7c552cfaa06db5de8a320dbc836117c3565b600081815260016020526040902080546060919061119290612657565b80601f01602080910402602001604051908101604052809291908181526020018280546111be90612657565b801561120b5780601f106111e05761010080835404028352916020019161120b565b820191906000526020600020905b8154815290600101906020018083116111ee57829003601f168201915b50505050509050919050565b3361122a6000546001600160a01b031690565b6001600160a01b031614610aba576040517fbf1169c50000000000000000000000000000000000000000000000000000000081523360048201526024016101a7565b6000546001600160a01b03828116911614610e7c57600080546040516001600160a01b03808516939216917f8be0079c531659141344cd1fd0a4f28419497f9722a3daafe3b4186f6b6457e091a3600080546001600160a01b0383167fffffffffffffffffffffffff000000000000000000000000000000000000000090911617905550565b6001600160a01b03841661131957604051630d2d5ec360e41b815260040160405180910390fd5b826003600082825461132b9190612538565b90915550506001600160a01b03841660009081526004602052604081208054859290611358908490612538565b90915550506040516001600160a01b0385169060009033907f3997e418d2cef0b3b0e907b1e39605c3f7d32dbd061e82ea5b4a770d46a160a6906113a19088908890889061268b565b60405180910390a460003360008686856040516020016113c59594939291906126ac565b60405160208183030381529060405290506108c6858483611857565b6001600160a01b0380831660009081526006602090815260408083209387168352929052205480821115611462576040517ff3a6b6910000000000000000000000000000000000000000000000000000000081526001600160a01b0380851660048301526024820183905285166044820152606481018390526084016101a7565b6108c8838561147185856126e6565b600060405180602001604052806000815250610fa5565b6001600160a01b03851615806114a557506001600160a01b038416155b156114c357604051630d2d5ec360e41b815260040160405180910390fd5b6001600160a01b0385166000908152600460205260409020548084111561152f576040517f08d47949000000000000000000000000000000000000000000000000000000008152600481018290526001600160a01b0387166024820152604481018590526064016101a7565b6001600160a01b038616600090815260046020526040812080548692906115579084906126e6565b90915550506001600160a01b03851660009081526004602052604081208054869290611584908490612538565b92505081905550846001600160a01b0316866001600160a01b0316336001600160a01b03167f3997e418d2cef0b3b0e907b1e39605c3f7d32dbd061e82ea5b4a770d46a160a68787876040516115dc9392919061268b565b60405180910390a4600033878787866040516020016115ff9594939291906126ac565b604051602081830303815290604052905061161a878261194a565b610804868583611857565b610c268282611975565b60606000610f9e83611ad5565b604080517fffffffffffffffffffff00000000000000000000000000000000000000000000841660208201526000602a82018190526bffffffffffffffffffffffff198416602c830152918291016040516020818303038152906040529050806116a5906126f9565b949350505050565b60006001600160e01b031982167f629aa69400000000000000000000000000000000000000000000000000000000148061060957506301ffc9a760e01b6001600160e01b0319831614610609565b604080516001600160e01b03198316602480830191909152825180830390910181526044909101909152602080820180517bffffffffffffffffffffffffffffffffffffffffffffffffffffffff166301ffc9a760e01b178152825160009392849283928392918391908a617530fa92503d91506000519050828015611782575060208210155b801561178e5750600081115b979650505050505050565b6000610f9e836001600160a01b038416611b30565b6000610f9e836001600160a01b038416611b7f565b6117dd6001600160a01b038416631aed5a8560e21b6116fb565b15610d1757604051631aed5a8560e21b81526001600160a01b03841690636bb56a1490611810908590859060040161271d565b6000604051808303816000875af115801561182f573d6000803e3d6000fd5b505050506040513d6000823e601f3d908101601f191682016040526108c89190810190612736565b61186883631aed5a8560e21b6116fb565b156118bb57604051631aed5a8560e21b81526001600160a01b03841690636bb56a1490611810907f20804611b3e2ea21c480dc465142210acf4a2485947541770ec1fb87dee4a55c90859060040161271d565b81610d17576001600160a01b0383163b1561190d576040517fa608fbb60000000000000000000000000000000000000000000000000000000081526001600160a01b03841660048201526024016101a7565b6040517f26c247f40000000000000000000000000000000000000000000000000000000081526001600160a01b03841660048201526024016101a7565b610c26827f429ac7a06903dbc9c13dfcb3c9d11df8194581fa047c96d7a4171fc7402958ea836117c3565b7f2145e1d6d074577dc71ef54c3807742b41b053a9352ae6b491331509acb9750f82016119ce576040517f85c169bd00000000000000000000000000000000000000000000000000000000815260040160405180910390fd5b7fd0f59754f88971fe6bc5a6618cc9d5f1e859c58d16b22d1c7b2d3e2b246cd8aa8201611a27576040517f76755b3800000000000000000000000000000000000000000000000000000000815260040160405180910390fd5b7f1fd9e056a24d14c4abc642fcc325992a946906d0dbc57dd70278aaf12842024d8201611a80576040517f4ef6d7fb00000000000000000000000000000000000000000000000000000000815260040160405180910390fd5b6000828152600160205260409020611a9882826127ea565b50817fece574603820d07bc9b91f2a932baadf4628aabcb8afba49776529c14a6104b282604051611ac9919061218b565b60405180910390a25050565b60608160000180548060200260200160405190810160405280929190818152602001828054801561120b57602002820191906000526020600020905b815481526020019060010190808311611b115750505050509050919050565b6000818152600183016020526040812054611b7757508154600181810184556000848152602080822090930184905584548482528286019093526040902091909155610609565b506000610609565b60008181526001830160205260408120548015611c68576000611ba36001836126e6565b8554909150600090611bb7906001906126e6565b9050818114611c1c576000866000018281548110611bd757611bd761257c565b9060005260206000200154905080876000018481548110611bfa57611bfa61257c565b6000918252602080832090910192909255918252600188019052604090208390555b8554869080611c2d57611c2d6128aa565b600190038181906000526020600020016000905590558560010160008681526020019081526020016000206000905560019350505050610609565b6000915050610609565b60208152816020820152818360408301376000818301604090810191909152601f909201601f19160101919050565b600060208284031215611cb357600080fd5b81356001600160e01b031981168114610f9e57600080fd5b80356001600160a01b0381168114611ce257600080fd5b919050565b634e487b7160e01b600052604160045260246000fd5b604051601f8201601f1916810167ffffffffffffffff81118282101715611d2657611d26611ce7565b604052919050565b600067ffffffffffffffff821115611d4857611d48611ce7565b50601f01601f191660200190565b600082601f830112611d6757600080fd5b8135611d7a611d7582611d2e565b611cfd565b818152846020838601011115611d8f57600080fd5b816020850160208301376000918101602001919091529392505050565b600080600060608486031215611dc157600080fd5b611dca84611ccb565b925060208401359150604084013567ffffffffffffffff811115611ded57600080fd5b611df986828701611d56565b9150509250925092565b600067ffffffffffffffff821115611e1d57611e1d611ce7565b5060051b60200190565b600082601f830112611e3857600080fd5b81356020611e48611d7583611e03565b82815260059290921b84018101918181019086841115611e6757600080fd5b8286015b84811015611e8957611e7c81611ccb565b8352918301918301611e6b565b509695505050505050565b600082601f830112611ea557600080fd5b81356020611eb5611d7583611e03565b82815260059290921b84018101918181019086841115611ed457600080fd5b8286015b84811015611e895780358352918301918301611ed8565b80358015158114611ce257600080fd5b600082601f830112611f1057600080fd5b81356020611f20611d7583611e03565b82815260059290921b84018101918181019086841115611f3f57600080fd5b8286015b84811015611e8957611f5481611eef565b8352918301918301611f43565b600082601f830112611f7257600080fd5b81356020611f82611d7583611e03565b82815260059290921b84018101918181019086841115611fa157600080fd5b8286015b84811015611e8957803567ffffffffffffffff811115611fc55760008081fd5b611fd38986838b0101611d56565b845250918301918301611fa5565b600080600080600060a08688031215611ff957600080fd5b853567ffffffffffffffff8082111561201157600080fd5b61201d89838a01611e27565b9650602088013591508082111561203357600080fd5b61203f89838a01611e27565b9550604088013591508082111561205557600080fd5b61206189838a01611e94565b9450606088013591508082111561207757600080fd5b61208389838a01611eff565b9350608088013591508082111561209957600080fd5b506120a688828901611f61565b9150509295509295909350565b600080600080608085870312156120c957600080fd5b6120d285611ccb565b93506120e060208601611ccb565b92506120ee60408601611eef565b9150606085013567ffffffffffffffff81111561210a57600080fd5b61211687828801611d56565b91505092959194509250565b60006020828403121561213457600080fd5b5035919050565b60005b8381101561215657818101518382015260200161213e565b50506000910152565b6000815180845261217781602086016020860161213b565b601f01601f19169290920160200192915050565b602081526000610f9e602083018461215f565b600080604083850312156121b157600080fd5b6121ba83611ccb565b91506121c860208401611ccb565b90509250929050565b600080602083850312156121e457600080fd5b823567ffffffffffffffff808211156121fc57600080fd5b818501915085601f83011261221057600080fd5b81358181111561221f57600080fd5b8660208260051b850101111561223457600080fd5b60209290920196919550909350505050565b6000602080830181845280855180835260408601915060408160051b870101925083870160005b8281101561229b57603f1988860301845261228985835161215f565b9450928501929085019060010161226d565b5092979650505050505050565b6000602082840312156122ba57600080fd5b610f9e82611ccb565b600080600080608085870312156122d957600080fd5b6122e285611ccb565b9350602085013592506120ee60408601611eef565b600080600080600060a0868803121561230f57600080fd5b61231886611ccb565b945061232660208701611ccb565b93506040860135925061233b60608701611eef565b9150608086013567ffffffffffffffff81111561235757600080fd5b6120a688828901611d56565b6000806000806080858703121561237957600080fd5b61238285611ccb565b935061239060208601611ccb565b925060408501359150606085013567ffffffffffffffff81111561210a57600080fd5b600080604083850312156123c657600080fd5b82359150602083013567ffffffffffffffff8111156123e457600080fd5b6123f085828601611d56565b9150509250929050565b6000806040838503121561240d57600080fd5b823567ffffffffffffffff8082111561242557600080fd5b61243186838701611e94565b9350602085013591508082111561244757600080fd5b506123f085828601611f61565b6020808252825182820181905260009190848201906040850190845b818110156124955783516001600160a01b031683529284019291840191600101612470565b50909695505050505050565b6000602082840312156124b357600080fd5b813567ffffffffffffffff8111156124ca57600080fd5b6116a584828501611e94565b8385823760609290921b6bffffffffffffffffffffffff1916919092019081526014810191909152603401919050565b6000825161251881846020870161213b565b9190910192915050565b634e487b7160e01b600052601160045260246000fd5b8082018082111561060957610609612522565b6001600160a01b0384168152826020820152606060408201526000612573606083018461215f565b95945050505050565b634e487b7160e01b600052603260045260246000fd5b6001600160a01b038416815260ff83166020820152606060408201526000612573606083018461215f565b6000808335601e198436030181126125d457600080fd5b83018035915067ffffffffffffffff8211156125ef57600080fd5b60200191503681900382131561260457600080fd5b9250929050565b8183823760009101908152919050565b805160208201516bffffffffffffffffffffffff19808216929190601483101561264f5780818460140360031b1b83161693505b505050919050565b600181811c9082168061266b57607f821691505b602082108103610e2557634e487b7160e01b600052602260045260246000fd5b8381528215156020820152606060408201526000612573606083018461215f565b60006001600160a01b038088168352808716602084015280861660408401525083606083015260a0608083015261178e60a083018461215f565b8181038181111561060957610609612522565b80516020808301519190811015610e255760001960209190910360031b1b16919050565b8281526040602082015260006116a5604083018461215f565b60006020828403121561274857600080fd5b815167ffffffffffffffff81111561275f57600080fd5b8201601f8101841361277057600080fd5b805161277e611d7582611d2e565b81815285602083850101111561279357600080fd5b61257382602083016020860161213b565b601f821115610d1757600081815260208120601f850160051c810160208610156127cb5750805b601f850160051c820191505b818110156106fd578281556001016127d7565b815167ffffffffffffffff81111561280457612804611ce7565b612818816128128454612657565b846127a4565b602080601f83116001811461284d57600084156128355750858301515b600019600386901b1c1916600185901b1785556106fd565b600085815260208120601f198616915b8281101561287c5788860151825594840194600190910190840161285d565b508582101561289a5787850151600019600388901b60f8161c191681555b5050505050600190811b01905550565b634e487b7160e01b600052603160045260246000fdfea2646970667358221220a7712f389f4bf008b18ebed579b69adcb0538576b43a4ac390c1b0e1dd002c7664736f6c63430008130033",
  "linkReferences": {},
  "deployedLinkReferences": {}
}